{
  "contractName": "DoctorAppointment",
  "abi": [
    {
      "inputs": [
        {
          "internalType": "address",
          "name": "_doctor",
          "type": "address"
        },
        {
          "internalType": "uint256",
          "name": "_appointmentDuration",
          "type": "uint256"
        },
        {
          "internalType": "uint256",
          "name": "_appointmentFee",
          "type": "uint256"
        },
        {
          "internalType": "uint256",
          "name": "_maxAppointmentsPerDay",
          "type": "uint256"
        }
      ],
      "stateMutability": "nonpayable",
      "type": "constructor"
    },
    {
      "inputs": [],
      "name": "appointmentDuration",
      "outputs": [
        {
          "internalType": "uint256",
          "name": "",
          "type": "uint256"
        }
      ],
      "stateMutability": "view",
      "type": "function"
    },
    {
      "inputs": [],
      "name": "appointmentFee",
      "outputs": [
        {
          "internalType": "uint256",
          "name": "",
          "type": "uint256"
        }
      ],
      "stateMutability": "view",
      "type": "function"
    },
    {
      "inputs": [
        {
          "internalType": "uint256",
          "name": "",
          "type": "uint256"
        },
        {
          "internalType": "uint256",
          "name": "",
          "type": "uint256"
        }
      ],
      "name": "appointments",
      "outputs": [
        {
          "internalType": "uint256",
          "name": "appointmentTime",
          "type": "uint256"
        },
        {
          "internalType": "address payable",
          "name": "patient",
          "type": "address"
        },
        {
          "internalType": "bool",
          "name": "booked",
          "type": "bool"
        },
        {
          "internalType": "bool",
          "name": "paid",
          "type": "bool"
        }
      ],
      "stateMutability": "view",
      "type": "function"
    },
    {
      "inputs": [],
      "name": "doctor",
      "outputs": [
        {
          "internalType": "address",
          "name": "",
          "type": "address"
        }
      ],
      "stateMutability": "view",
      "type": "function"
    },
    {
      "inputs": [],
      "name": "maxAppointmentsPerDay",
      "outputs": [
        {
          "internalType": "uint256",
          "name": "",
          "type": "uint256"
        }
      ],
      "stateMutability": "view",
      "type": "function"
    },
    {
      "inputs": [
        {
          "internalType": "uint256",
          "name": "_day",
          "type": "uint256"
        },
        {
          "internalType": "uint256",
          "name": "_appointmentTime",
          "type": "uint256"
        }
      ],
      "name": "bookAppointment",
      "outputs": [],
      "stateMutability": "payable",
      "type": "function"
    },
    {
      "inputs": [
        {
          "internalType": "uint256",
          "name": "_day",
          "type": "uint256"
        },
        {
          "internalType": "uint256",
          "name": "_appointmentTime",
          "type": "uint256"
        }
      ],
      "name": "cancelAppointment",
      "outputs": [],
      "stateMutability": "nonpayable",
      "type": "function"
    }
  ],
  "bytecode": "0x60806040523480156200001157600080fd5b5060405162000ee738038062000ee783398181016040528101906200003791906200013b565b836000806101000a81548173ffffffffffffffffffffffffffffffffffffffff021916908373ffffffffffffffffffffffffffffffffffffffff16021790555082600181905550816002819055508060038190555050505050620001ad565b600080fd5b600073ffffffffffffffffffffffffffffffffffffffff82169050919050565b6000620000c8826200009b565b9050919050565b620000da81620000bb565b8114620000e657600080fd5b50565b600081519050620000fa81620000cf565b92915050565b6000819050919050565b620001158162000100565b81146200012157600080fd5b50565b60008151905062000135816200010a565b92915050565b6000806000806080858703121562000158576200015762000096565b5b60006200016887828801620000e9565b94505060206200017b8782880162000124565b93505060406200018e8782880162000124565b9250506060620001a18782880162000124565b91505092959194509250565b610d2a80620001bd6000396000f3fe6080604052600436106100705760003560e01c80638a5fdfa71161004e5780638a5fdfa7146100e7578063cd9b33ee14610112578063dabf826a14610152578063db72df591461017d57610070565b806379d30029146100755780637a559d9f146100915780637ea7118c146100bc575b600080fd5b61008f600480360381019061008a9190610776565b6101a6565b005b34801561009d57600080fd5b506100a66104c1565b6040516100b391906107c5565b60405180910390f35b3480156100c857600080fd5b506100d16104c7565b6040516100de9190610821565b60405180910390f35b3480156100f357600080fd5b506100fc6104eb565b60405161010991906107c5565b60405180910390f35b34801561011e57600080fd5b5061013960048036038101906101349190610776565b6104f1565b6040516101499493929190610878565b60405180910390f35b34801561015e57600080fd5b50610167610578565b60405161017491906107c5565b60405180910390f35b34801561018957600080fd5b506101a4600480360381019061019f9190610776565b61057e565b005b60008054906101000a900473ffffffffffffffffffffffffffffffffffffffff1673ffffffffffffffffffffffffffffffffffffffff163373ffffffffffffffffffffffffffffffffffffffff1603610234576040517f08c379a000000000000000000000000000000000000000000000000000000000815260040161022b9061091a565b60405180910390fd5b60035460046000848152602001908152602001600020805490501061028e576040517f08c379a0000000000000000000000000000000000000000000000000000000008152600401610285906109ac565b60405180910390fd5b60006001548261029e91906109fb565b146102de576040517f08c379a00000000000000000000000000000000000000000000000000000000081526004016102d590610a9e565b60405180910390fd5b6002543414610322576040517f08c379a000000000000000000000000000000000000000000000000000000000815260040161031990610b0a565b60405180910390fd5b6000600154826103329190610b2a565b905060046000848152602001908152602001600020818154811061035957610358610b5b565b5b906000526020600020906002020160010160149054906101000a900460ff16156103b8576040517f08c379a00000000000000000000000000000000000000000000000000000000081526004016103af90610bd6565b60405180910390fd5b60405180608001604052808381526020013373ffffffffffffffffffffffffffffffffffffffff1681526020016001151581526020016001151581525060046000858152602001908152602001600020828154811061041a57610419610b5b565b5b90600052602060002090600202016000820151816000015560208201518160010160006101000a81548173ffffffffffffffffffffffffffffffffffffffff021916908373ffffffffffffffffffffffffffffffffffffffff16021790555060408201518160010160146101000a81548160ff02191690831515021790555060608201518160010160156101000a81548160ff021916908315150217905550905050505050565b60015481565b60008054906101000a900473ffffffffffffffffffffffffffffffffffffffff1681565b60035481565b6004602052816000526040600020818154811061050d57600080fd5b9060005260206000209060020201600091509150508060000154908060010160009054906101000a900473ffffffffffffffffffffffffffffffffffffffff16908060010160149054906101000a900460ff16908060010160159054906101000a900460ff16905084565b60025481565b60006001548261058e9190610b2a565b905060006004600085815260200190815260200160002082815481106105b7576105b6610b5b565b5b906000526020600020906002020190503373ffffffffffffffffffffffffffffffffffffffff168160010160009054906101000a900473ffffffffffffffffffffffffffffffffffffffff1673ffffffffffffffffffffffffffffffffffffffff1614610659576040517f08c379a000000000000000000000000000000000000000000000000000000000815260040161065090610c68565b60405180910390fd5b8060010160159054906101000a900460ff16156106ab576040517f08c379a00000000000000000000000000000000000000000000000000000000081526004016106a290610cd4565b60405180910390fd5b60008160010160146101000a81548160ff0219169083151502179055508060010160009054906101000a900473ffffffffffffffffffffffffffffffffffffffff1673ffffffffffffffffffffffffffffffffffffffff166108fc6002549081150290604051600060405180830381858888f19350505050158015610734573d6000803e3d6000fd5b5050505050565b600080fd5b6000819050919050565b61075381610740565b811461075e57600080fd5b50565b6000813590506107708161074a565b92915050565b6000806040838503121561078d5761078c61073b565b5b600061079b85828601610761565b92505060206107ac85828601610761565b9150509250929050565b6107bf81610740565b82525050565b60006020820190506107da60008301846107b6565b92915050565b600073ffffffffffffffffffffffffffffffffffffffff82169050919050565b600061080b826107e0565b9050919050565b61081b81610800565b82525050565b60006020820190506108366000830184610812565b92915050565b6000610847826107e0565b9050919050565b6108578161083c565b82525050565b60008115159050919050565b6108728161085d565b82525050565b600060808201905061088d60008301876107b6565b61089a602083018661084e565b6108a76040830185610869565b6108b46060830184610869565b95945050505050565b600082825260208201905092915050565b7f446f63746f722063616e6e6f7420626f6f6b206170706f696e746d656e740000600082015250565b6000610904601e836108bd565b915061090f826108ce565b602082019050919050565b60006020820190508181036000830152610933816108f7565b9050919050565b7f4e6f20617661696c61626c65206170706f696e746d656e7473206f6e2074686960008201527f7320646179000000000000000000000000000000000000000000000000000000602082015250565b60006109966025836108bd565b91506109a18261093a565b604082019050919050565b600060208201905081810360008301526109c581610989565b9050919050565b7f4e487b7100000000000000000000000000000000000000000000000000000000600052601260045260246000fd5b6000610a0682610740565b9150610a1183610740565b925082610a2157610a206109cc565b5b828206905092915050565b7f4170706f696e746d656e742074696d65206d7573742062652061206d756c746960008201527f706c65206f66206170706f696e746d656e74206475726174696f6e0000000000602082015250565b6000610a88603b836108bd565b9150610a9382610a2c565b604082019050919050565b60006020820190508181036000830152610ab781610a7b565b9050919050565b7f496e636f7272656374206170706f696e746d656e742066656500000000000000600082015250565b6000610af46019836108bd565b9150610aff82610abe565b602082019050919050565b60006020820190508181036000830152610b2381610ae7565b9050919050565b6000610b3582610740565b9150610b4083610740565b925082610b5057610b4f6109cc565b5b828204905092915050565b7f4e487b7100000000000000000000000000000000000000000000000000000000600052603260045260246000fd5b7f4170706f696e746d656e7420616c726561647920626f6f6b6564000000000000600082015250565b6000610bc0601a836108bd565b9150610bcb82610b8a565b602082019050919050565b60006020820190508181036000830152610bef81610bb3565b9050919050565b7f4f6e6c792070617469656e742077686f20626f6f6b656420746865206170706f60008201527f696e746d656e742063616e2063616e63656c2069740000000000000000000000602082015250565b6000610c526035836108bd565b9150610c5d82610bf6565b604082019050919050565b60006020820190508181036000830152610c8181610c45565b9050919050565b7f4170706f696e746d656e742066656520616c7265616479207061696400000000600082015250565b6000610cbe601c836108bd565b9150610cc982610c88565b602082019050919050565b60006020820190508181036000830152610ced81610cb1565b905091905056fea26469706673582212201a868a1804135365de611263f2001de0f5e3459ce46ad5537712fad0865f170464736f6c63430008130033",
  "immutableReferences": {},
  "source": "//SPDX-License-Identifier: MIT\r\n\r\n/*pragma solidity ^0.8.0;\r\n\r\ncontract MedicalRecord {\r\n    struct PatientRecord {\r\n        string name;\r\n        string diagnosis;\r\n        string treatment;\r\n        uint256 date;\r\n    }\r\n\r\n    address public owner;\r\n    mapping(address => bool) public authorized;\r\n\r\n    mapping(uint256 => PatientRecord) public records;\r\n    uint256 public recordCount;\r\n\r\n    constructor() {\r\n        owner = msg.sender;\r\n    }\r\n\r\n    modifier onlyOwner() {\r\n        require(msg.sender == owner, \"Only owner can call this function.\");\r\n        _;\r\n    }\r\n\r\n    modifier onlyAuthorized() {\r\n        require(authorized[msg.sender], \"Only authorized users can call this function.\");\r\n        _;\r\n    }\r\n\r\n    function addAuthorized(address user) public onlyOwner {\r\n        authorized[user] = true;\r\n    }\r\n\r\n    function removeAuthorized(address user) public onlyOwner {\r\n        authorized[user] = false;\r\n    }\r\n\r\n    function createRecord(string memory name, string memory diagnosis, string memory treatment) public onlyAuthorized {\r\n        uint256 id = ++recordCount;\r\n        records[id] = PatientRecord(name, diagnosis, treatment, block.timestamp);\r\n    }\r\n\r\n    function updateRecord(uint256 id, string memory name, string memory diagnosis, string memory treatment) public onlyAuthorized {\r\n        PatientRecord storage record = records[id];\r\n        record.name = name;\r\n        record.diagnosis = diagnosis;\r\n        record.treatment = treatment;\r\n    }\r\n\r\n    function getRecord(uint256 id) public view onlyAuthorized returns (string memory, string memory, string memory, uint256) {\r\n        PatientRecord storage record = records[id];\r\n        return (record.name, record.diagnosis, record.treatment, record.date);\r\n    }\r\n\r\n    function deleteRecord(uint256 id) public onlyAuthorized {\r\n        delete records[id];\r\n    }\r\n}\r\n*/\r\n\r\npragma solidity ^0.8.0;\r\n\r\ncontract DoctorAppointment {\r\n    struct Appointment {\r\n        uint256 appointmentTime; // Timestamp of the appointment\r\n        address payable patient; // Address of the patient who booked the appointment\r\n        bool booked; // Indicates whether the appointment is booked or not\r\n        bool paid; // Indicates whether the appointment fee has been paid or not\r\n    }\r\n\r\n    address public doctor; // Address of the doctor\r\n    uint256 public appointmentDuration; // Duration of each appointment\r\n    uint256 public appointmentFee; // Fee for each appointment\r\n    uint256 public maxAppointmentsPerDay; // Maximum number of appointments per day\r\n    mapping(uint256 => Appointment[]) public appointments; // Map of appointments for each day\r\n\r\n    constructor(address _doctor, uint256 _appointmentDuration, uint256 _appointmentFee, uint256 _maxAppointmentsPerDay) {\r\n        doctor = _doctor;\r\n        appointmentDuration = _appointmentDuration;\r\n        appointmentFee = _appointmentFee;\r\n        maxAppointmentsPerDay = _maxAppointmentsPerDay;\r\n    }\r\n\r\n    function bookAppointment(uint256 _day, uint256 _appointmentTime) external payable {\r\n        require(msg.sender != doctor, \"Doctor cannot book appointment\");\r\n        require(appointments[_day].length < maxAppointmentsPerDay, \"No available appointments on this day\");\r\n        require(_appointmentTime % appointmentDuration == 0, \"Appointment time must be a multiple of appointment duration\");\r\n        require(msg.value == appointmentFee, \"Incorrect appointment fee\");\r\n\r\n        uint256 appointmentSlot = _appointmentTime / appointmentDuration;\r\n        require(!appointments[_day][appointmentSlot].booked, \"Appointment already booked\");\r\n\r\n        appointments[_day][appointmentSlot] = Appointment({\r\n            appointmentTime: _appointmentTime,\r\n            patient: payable(msg.sender),\r\n            booked: true,\r\n            paid: true\r\n        });\r\n    }\r\n\r\n    function cancelAppointment(uint256 _day, uint256 _appointmentTime) external {\r\n        uint256 appointmentSlot = _appointmentTime / appointmentDuration;\r\n        Appointment storage appointment = appointments[_day][appointmentSlot];\r\n        require(appointment.patient == msg.sender, \"Only patient who booked the appointment can cancel it\");\r\n        require(!appointment.paid, \"Appointment fee already paid\");\r\n        appointment.booked = false;\r\n        appointment.patient.transfer(appointmentFee);\r\n    }\r\n}\r\n",
  "sourcePath": "C:\\Users\\DELL\\Desktop\\truffleproj\\healthdapp\\trialhealth\\contracts\\MedicalRecord.sol",
  "compiler": {
    "name": "solc",
    "version": "0.8.19+commit.7dd6d404.Emscripten.clang"
  },
  "schemaVersion": "3.4.13",
  "updatedAt": "2023-04-06T13:45:12.052Z",
  "devdoc": {
    "kind": "dev",
    "methods": {},
    "version": 1
  },
  "userdoc": {
    "kind": "user",
    "methods": {},
    "version": 1
  }
}