{
  "contractName": "Healthcare",
  "abi": [
    {
      "inputs": [],
      "stateMutability": "nonpayable",
      "type": "constructor"
    },
    {
      "inputs": [],
      "name": "admin",
      "outputs": [
        {
          "internalType": "address",
          "name": "",
          "type": "address"
        }
      ],
      "stateMutability": "view",
      "type": "function"
    },
    {
      "inputs": [],
      "name": "patientCount",
      "outputs": [
        {
          "internalType": "uint256",
          "name": "",
          "type": "uint256"
        }
      ],
      "stateMutability": "view",
      "type": "function"
    },
    {
      "inputs": [
        {
          "internalType": "address",
          "name": "",
          "type": "address"
        }
      ],
      "name": "patients",
      "outputs": [
        {
          "internalType": "uint256",
          "name": "id",
          "type": "uint256"
        },
        {
          "internalType": "string",
          "name": "name",
          "type": "string"
        },
        {
          "internalType": "uint256",
          "name": "age",
          "type": "uint256"
        },
        {
          "internalType": "string",
          "name": "gender",
          "type": "string"
        }
      ],
      "stateMutability": "view",
      "type": "function"
    },
    {
      "inputs": [
        {
          "internalType": "string",
          "name": "_name",
          "type": "string"
        },
        {
          "internalType": "uint256",
          "name": "_age",
          "type": "uint256"
        },
        {
          "internalType": "string",
          "name": "_gender",
          "type": "string"
        }
      ],
      "name": "addPatient",
      "outputs": [],
      "stateMutability": "nonpayable",
      "type": "function"
    },
    {
      "inputs": [
        {
          "internalType": "address",
          "name": "_patientAddress",
          "type": "address"
        },
        {
          "internalType": "string",
          "name": "_medicalRecord",
          "type": "string"
        }
      ],
      "name": "addMedicalRecord",
      "outputs": [],
      "stateMutability": "nonpayable",
      "type": "function"
    },
    {
      "inputs": [
        {
          "internalType": "address",
          "name": "_patientAddress",
          "type": "address"
        }
      ],
      "name": "getMedicalRecords",
      "outputs": [
        {
          "internalType": "string[]",
          "name": "",
          "type": "string[]"
        }
      ],
      "stateMutability": "view",
      "type": "function"
    }
  ],
  "bytecode": "0x608060405234801561001057600080fd5b5033600260006101000a81548173ffffffffffffffffffffffffffffffffffffffff021916908373ffffffffffffffffffffffffffffffffffffffff16021790555061127d806100616000396000f3fe608060405234801561001057600080fd5b50600436106100625760003560e01c80630869cfbc146100675780633a9b131c1461009a578063a0303c41146100b6578063afd8297c146100d4578063d65da44a14610104578063f851a44014610120575b600080fd5b610081600480360381019061007c919061087e565b61013e565b6040516100919493929190610954565b60405180910390f35b6100b460048036038101906100af9190610adc565b61027e565b005b6100be610364565b6040516100cb9190610b38565b60405180910390f35b6100ee60048036038101906100e9919061087e565b61036a565b6040516100fb9190610c5f565b60405180910390f35b61011e60048036038101906101199190610cad565b61054a565b005b61012861070c565b6040516101359190610d47565b60405180910390f35b600060205280600052604060002060009150905080600001549080600101805461016790610d91565b80601f016020809104026020016040519081016040528092919081815260200182805461019390610d91565b80156101e05780601f106101b5576101008083540402835291602001916101e0565b820191906000526020600020905b8154815290600101906020018083116101c357829003601f168201915b5050505050908060020154908060030180546101fb90610d91565b80601f016020809104026020016040519081016040528092919081815260200182805461022790610d91565b80156102745780601f1061024957610100808354040283529160200191610274565b820191906000526020600020905b81548152906001019060200180831161025757829003601f168201915b5050505050905084565b8173ffffffffffffffffffffffffffffffffffffffff163373ffffffffffffffffffffffffffffffffffffffff16146102ec576040517f08c379a00000000000000000000000000000000000000000000000000000000081526004016102e390610e34565b60405180910390fd5b6000808373ffffffffffffffffffffffffffffffffffffffff1673ffffffffffffffffffffffffffffffffffffffff1681526020019081526020016000206004018190806001815401808255809150506001900390600052602060002001600090919091909150908161035f9190611000565b505050565b60015481565b60608173ffffffffffffffffffffffffffffffffffffffff163373ffffffffffffffffffffffffffffffffffffffff1614806103f35750600260009054906101000a900473ffffffffffffffffffffffffffffffffffffffff1673ffffffffffffffffffffffffffffffffffffffff163373ffffffffffffffffffffffffffffffffffffffff16145b610432576040517f08c379a000000000000000000000000000000000000000000000000000000000815260040161042990611144565b60405180910390fd5b6000808373ffffffffffffffffffffffffffffffffffffffff1673ffffffffffffffffffffffffffffffffffffffff168152602001908152602001600020600401805480602002602001604051908101604052809291908181526020016000905b8282101561053f5783829060005260206000200180546104b290610d91565b80601f01602080910402602001604051908101604052809291908181526020018280546104de90610d91565b801561052b5780601f106105005761010080835404028352916020019161052b565b820191906000526020600020905b81548152906001019060200180831161050e57829003601f168201915b505050505081526020019060010190610493565b505050509050919050565b600260009054906101000a900473ffffffffffffffffffffffffffffffffffffffff1673ffffffffffffffffffffffffffffffffffffffff163373ffffffffffffffffffffffffffffffffffffffff16146105da576040517f08c379a00000000000000000000000000000000000000000000000000000000081526004016105d1906111b0565b60405180910390fd5b600160008154809291906105ed906111ff565b91905055506040518060a001604052806001548152602001848152602001838152602001828152602001600067ffffffffffffffff811115610632576106316109b1565b5b60405190808252806020026020018201604052801561066557816020015b60608152602001906001900390816106505790505b508152506000803373ffffffffffffffffffffffffffffffffffffffff1673ffffffffffffffffffffffffffffffffffffffff1681526020019081526020016000206000820151816000015560208201518160010190816106c69190611000565b506040820151816002015560608201518160030190816106e69190611000565b506080820151816004019080519060200190610703929190610732565b50905050505050565b600260009054906101000a900473ffffffffffffffffffffffffffffffffffffffff1681565b82805482825590600052602060002090810192821561077a579160200282015b828111156107795782518290816107699190611000565b5091602001919060010190610752565b5b509050610787919061078b565b5090565b5b808211156107ab57600081816107a291906107af565b5060010161078c565b5090565b5080546107bb90610d91565b6000825580601f106107cd57506107ec565b601f0160209004906000526020600020908101906107eb91906107ef565b5b50565b5b808211156108085760008160009055506001016107f0565b5090565b6000604051905090565b600080fd5b600080fd5b600073ffffffffffffffffffffffffffffffffffffffff82169050919050565b600061084b82610820565b9050919050565b61085b81610840565b811461086657600080fd5b50565b60008135905061087881610852565b92915050565b60006020828403121561089457610893610816565b5b60006108a284828501610869565b91505092915050565b6000819050919050565b6108be816108ab565b82525050565b600081519050919050565b600082825260208201905092915050565b60005b838110156108fe5780820151818401526020810190506108e3565b60008484015250505050565b6000601f19601f8301169050919050565b6000610926826108c4565b61093081856108cf565b93506109408185602086016108e0565b6109498161090a565b840191505092915050565b600060808201905061096960008301876108b5565b818103602083015261097b818661091b565b905061098a60408301856108b5565b818103606083015261099c818461091b565b905095945050505050565b600080fd5b600080fd5b7f4e487b7100000000000000000000000000000000000000000000000000000000600052604160045260246000fd5b6109e98261090a565b810181811067ffffffffffffffff82111715610a0857610a076109b1565b5b80604052505050565b6000610a1b61080c565b9050610a2782826109e0565b919050565b600067ffffffffffffffff821115610a4757610a466109b1565b5b610a508261090a565b9050602081019050919050565b82818337600083830152505050565b6000610a7f610a7a84610a2c565b610a11565b905082815260208101848484011115610a9b57610a9a6109ac565b5b610aa6848285610a5d565b509392505050565b600082601f830112610ac357610ac26109a7565b5b8135610ad3848260208601610a6c565b91505092915050565b60008060408385031215610af357610af2610816565b5b6000610b0185828601610869565b925050602083013567ffffffffffffffff811115610b2257610b2161081b565b5b610b2e85828601610aae565b9150509250929050565b6000602082019050610b4d60008301846108b5565b92915050565b600081519050919050565b600082825260208201905092915050565b6000819050602082019050919050565b600082825260208201905092915050565b6000610b9b826108c4565b610ba58185610b7f565b9350610bb58185602086016108e0565b610bbe8161090a565b840191505092915050565b6000610bd58383610b90565b905092915050565b6000602082019050919050565b6000610bf582610b53565b610bff8185610b5e565b935083602082028501610c1185610b6f565b8060005b85811015610c4d5784840389528151610c2e8582610bc9565b9450610c3983610bdd565b925060208a01995050600181019050610c15565b50829750879550505050505092915050565b60006020820190508181036000830152610c798184610bea565b905092915050565b610c8a816108ab565b8114610c9557600080fd5b50565b600081359050610ca781610c81565b92915050565b600080600060608486031215610cc657610cc5610816565b5b600084013567ffffffffffffffff811115610ce457610ce361081b565b5b610cf086828701610aae565b9350506020610d0186828701610c98565b925050604084013567ffffffffffffffff811115610d2257610d2161081b565b5b610d2e86828701610aae565b9150509250925092565b610d4181610840565b82525050565b6000602082019050610d5c6000830184610d38565b92915050565b7f4e487b7100000000000000000000000000000000000000000000000000000000600052602260045260246000fd5b60006002820490506001821680610da957607f821691505b602082108103610dbc57610dbb610d62565b5b50919050565b7f4f6e6c792070617469656e742063616e20616464206d65646963616c2072656360008201527f6f7264732e000000000000000000000000000000000000000000000000000000602082015250565b6000610e1e6025836108cf565b9150610e2982610dc2565b604082019050919050565b60006020820190508181036000830152610e4d81610e11565b9050919050565b60008190508160005260206000209050919050565b60006020601f8301049050919050565b600082821b905092915050565b600060088302610eb67fffffffffffffffffffffffffffffffffffffffffffffffffffffffffffffffff82610e79565b610ec08683610e79565b95508019841693508086168417925050509392505050565b6000819050919050565b6000610efd610ef8610ef3846108ab565b610ed8565b6108ab565b9050919050565b6000819050919050565b610f1783610ee2565b610f2b610f2382610f04565b848454610e86565b825550505050565b600090565b610f40610f33565b610f4b818484610f0e565b505050565b5b81811015610f6f57610f64600082610f38565b600181019050610f51565b5050565b601f821115610fb457610f8581610e54565b610f8e84610e69565b81016020851015610f9d578190505b610fb1610fa985610e69565b830182610f50565b50505b505050565b600082821c905092915050565b6000610fd760001984600802610fb9565b1980831691505092915050565b6000610ff08383610fc6565b9150826002028217905092915050565b611009826108c4565b67ffffffffffffffff811115611022576110216109b1565b5b61102c8254610d91565b611037828285610f73565b600060209050601f83116001811461106a5760008415611058578287015190505b6110628582610fe4565b8655506110ca565b601f19841661107886610e54565b60005b828110156110a05784890151825560018201915060208501945060208101905061107b565b868310156110bd57848901516110b9601f891682610fc6565b8355505b6001600288020188555050505b505050505050565b7f4f6e6c792070617469656e74206f722061646d696e2063616e2076696577206d60008201527f65646963616c207265636f7264732e0000000000000000000000000000000000602082015250565b600061112e602f836108cf565b9150611139826110d2565b604082019050919050565b6000602082019050818103600083015261115d81611121565b9050919050565b7f4f6e6c792061646d696e2063616e206164642070617469656e74732e00000000600082015250565b600061119a601c836108cf565b91506111a582611164565b602082019050919050565b600060208201905081810360008301526111c98161118d565b9050919050565b7f4e487b7100000000000000000000000000000000000000000000000000000000600052601160045260246000fd5b600061120a826108ab565b91507fffffffffffffffffffffffffffffffffffffffffffffffffffffffffffffffff820361123c5761123b6111d0565b5b60018201905091905056fea2646970667358221220587d3c1d0b80344e2d271b9e219afa81c2d966357dd88f5c77e938a1bdfd233b64736f6c63430008130033",
  "immutableReferences": {},
  "source": "\r\n\r\n/*pragma solidity ^0.8.0;\r\n\r\ncontract MedicalRecord {\r\n    struct PatientRecord {\r\n        string name;\r\n        string diagnosis;\r\n        string treatment;\r\n        uint256 date;\r\n    }\r\n\r\n    address public owner;\r\n    mapping(address => bool) public authorized;\r\n\r\n    mapping(uint256 => PatientRecord) public records;\r\n    uint256 public recordCount;\r\n\r\n    constructor() {\r\n        owner = msg.sender;\r\n    }\r\n\r\n    modifier onlyOwner() {\r\n        require(msg.sender == owner, \"Only owner can call this function.\");\r\n        _;\r\n    }\r\n\r\n    modifier onlyAuthorized() {\r\n        require(authorized[msg.sender], \"Only authorized users can call this function.\");\r\n        _;\r\n    }\r\n\r\n    function addAuthorized(address user) public onlyOwner {\r\n        authorized[user] = true;\r\n    }\r\n\r\n    function removeAuthorized(address user) public onlyOwner {\r\n        authorized[user] = false;\r\n    }\r\n\r\n    function createRecord(string memory name, string memory diagnosis, string memory treatment) public onlyAuthorized {\r\n        uint256 id = ++recordCount;\r\n        records[id] = PatientRecord(name, diagnosis, treatment, block.timestamp);\r\n    }\r\n\r\n    function updateRecord(uint256 id, string memory name, string memory diagnosis, string memory treatment) public onlyAuthorized {\r\n        PatientRecord storage record = records[id];\r\n        record.name = name;\r\n        record.diagnosis = diagnosis;\r\n        record.treatment = treatment;\r\n    }\r\n\r\n    function getRecord(uint256 id) public view onlyAuthorized returns (string memory, string memory, string memory, uint256) {\r\n        PatientRecord storage record = records[id];\r\n        return (record.name, record.diagnosis, record.treatment, record.date);\r\n    }\r\n\r\n    function deleteRecord(uint256 id) public onlyAuthorized {\r\n        delete records[id];\r\n    }\r\n}\r\n*/\r\n/*\r\npragma solidity ^0.8.0;\r\n\r\ncontract DoctorAppointment {\r\n    struct Appointment {\r\n        uint256 appointmentTime; // Timestamp of the appointment\r\n        address payable patient; // Address of the patient who booked the appointment\r\n        bool booked; // Indicates whether the appointment is booked or not\r\n        bool paid; // Indicates whether the appointment fee has been paid or not\r\n    }\r\n\r\n    address public doctor; // Address of the doctor\r\n    uint256 public appointmentDuration; // Duration of each appointment\r\n    uint256 public appointmentFee; // Fee for each appointment\r\n    uint256 public maxAppointmentsPerDay; // Maximum number of appointments per day\r\n    mapping(uint256 => Appointment[]) public appointments; // Map of appointments for each day\r\n\r\n    constructor(address _doctor, uint256 _appointmentDuration, uint256 _appointmentFee, uint256 _maxAppointmentsPerDay) {\r\n        doctor = _doctor;\r\n        appointmentDuration = _appointmentDuration;\r\n        appointmentFee = _appointmentFee;\r\n        maxAppointmentsPerDay = _maxAppointmentsPerDay;\r\n    }\r\n\r\n    function bookAppointment(uint256 _day, uint256 _appointmentTime) external payable {\r\n        require(msg.sender != doctor, \"Doctor cannot book appointment\");\r\n        require(appointments[_day].length < maxAppointmentsPerDay, \"No available appointments on this day\");\r\n        require(_appointmentTime % appointmentDuration == 0, \"Appointment time must be a multiple of appointment duration\");\r\n        require(msg.value == appointmentFee, \"Incorrect appointment fee\");\r\n\r\n        uint256 appointmentSlot = _appointmentTime / appointmentDuration;\r\n        require(!appointments[_day][appointmentSlot].booked, \"Appointment already booked\");\r\n\r\n        appointments[_day][appointmentSlot] = Appointment({\r\n            appointmentTime: _appointmentTime,\r\n            patient: payable(msg.sender),\r\n            booked: true,\r\n            paid: true\r\n        });\r\n    }\r\n\r\n    function cancelAppointment(uint256 _day, uint256 _appointmentTime) external {\r\n        uint256 appointmentSlot = _appointmentTime / appointmentDuration;\r\n        Appointment storage appointment = appointments[_day][appointmentSlot];\r\n        require(appointment.patient == msg.sender, \"Only patient who booked the appointment can cancel it\");\r\n        require(!appointment.paid, \"Appointment fee already paid\");\r\n        appointment.booked = false;\r\n        appointment.patient.transfer(appointmentFee);\r\n    }\r\n}\r\n*/\r\n\r\n\r\n// SPDX-License-Identifier: MIT\r\n\r\n/*\r\npragma solidity >=0.5.16 <0.9.0;\r\n\r\ncontract BookingRoom {\r\n    struct Appointment {\r\n        address guest;\r\n        uint appointmentDate;\r\n        uint checkOutDate;\r\n    //    uint roomNumber;\r\n        uint totalPrice;\r\n        bool paid;\r\n    }\r\n\r\n    Appointment[] public Appointments;\r\n\r\n    uint public constant PRICE_PER_NIGHT = 1 ether;\r\n\r\n    event AppointmentCreated(address guest, uint appointmentDate, uint checkOutDate, uint totalPrice);\r\n    event AppointmentPaid(uint AppointmentId);\r\n\r\n    function createAppointment(uint appointmentDate, uint checkOutDate) public payable {\r\n        require(msg.value == (checkOutDate - appointmentDate) * PRICE_PER_NIGHT, \"Invalid payment amount.\");\r\n     //   require(roomNumber >= 1 && roomNumber <= 10, \"Invalid room number.\");\r\n        require(appointmentDate >= block.timestamp, \"Check-in date must be in the future.\");\r\n        require(checkOutDate > appointmentDate, \"Check-out date must be after check-in date.\");\r\n\r\n        Appointment memory Appointment = Appointment(msg.sender, appointmentDate, checkOutDate, msg.value, false);\r\n        Appointments.push(Appointment);\r\n        emit AppointmentCreated(msg.sender, appointmentDate, checkOutDate, msg.value);\r\n    }\r\n\r\n    function payAppointment(uint AppointmentId) public payable {\r\n        Appointment storage Appointment = Appointments[AppointmentId];\r\n        require(Appointment.guest == msg.sender, \"Only the guest who created the Appointment can pay.\");\r\n        require(Appointment.paid == false, \"Appointment has already been paid.\");\r\n\r\n        Appointment.paid = true;\r\n        emit AppointmentPaid(AppointmentId);\r\n    }\r\n}\r\n\r\n*/\r\n\r\npragma solidity ^0.8.0;\r\n\r\ncontract Healthcare {\r\n    struct Patient {\r\n        uint id;\r\n        string name;\r\n        uint age;\r\n        string gender;\r\n        string[] medicalRecords;\r\n    }\r\n    \r\n    mapping (address => Patient) public patients;\r\n    uint public patientCount;\r\n    address public admin;\r\n\r\n    constructor() {\r\n        admin = msg.sender;\r\n    }\r\n\r\n    function addPatient(string memory _name, uint _age, string memory _gender) public {\r\n        require(msg.sender == admin, \"Only admin can add patients.\");\r\n        patientCount++;\r\n        patients[msg.sender] = Patient(patientCount, _name, _age, _gender, new string[](0));\r\n    }\r\n\r\n    function addMedicalRecord(address _patientAddress, string memory _medicalRecord) public {\r\n        require(msg.sender == _patientAddress, \"Only patient can add medical records.\");\r\n        patients[_patientAddress].medicalRecords.push(_medicalRecord);\r\n    }\r\n    \r\n    function getMedicalRecords(address _patientAddress) public view returns (string[] memory) {\r\n        require(msg.sender == _patientAddress || msg.sender == admin, \"Only patient or admin can view medical records.\");\r\n        return patients[_patientAddress].medicalRecords;\r\n    }\r\n}\r\n",
  "sourcePath": "C:\\Users\\DELL\\Desktop\\truffleproj\\healthdapp\\trialhealth\\contracts\\MedicalRecord.sol",
  "compiler": {
    "name": "solc",
    "version": "0.8.19+commit.7dd6d404.Emscripten.clang"
  },
  "schemaVersion": "3.4.13",
  "updatedAt": "2023-04-06T15:25:24.263Z",
  "devdoc": {
    "kind": "dev",
    "methods": {},
    "version": 1
  },
  "userdoc": {
    "kind": "user",
    "methods": {},
    "version": 1
  }
}