{
  "contractName": "MedicalRecord",
  "abi": [
    {
      "inputs": [],
      "stateMutability": "nonpayable",
      "type": "constructor"
    },
    {
      "inputs": [
        {
          "internalType": "address",
          "name": "",
          "type": "address"
        }
      ],
      "name": "authorized",
      "outputs": [
        {
          "internalType": "bool",
          "name": "",
          "type": "bool"
        }
      ],
      "stateMutability": "view",
      "type": "function",
      "constant": true
    },
    {
      "inputs": [],
      "name": "owner",
      "outputs": [
        {
          "internalType": "address",
          "name": "",
          "type": "address"
        }
      ],
      "stateMutability": "view",
      "type": "function",
      "constant": true
    },
    {
      "inputs": [],
      "name": "recordCount",
      "outputs": [
        {
          "internalType": "uint256",
          "name": "",
          "type": "uint256"
        }
      ],
      "stateMutability": "view",
      "type": "function",
      "constant": true
    },
    {
      "inputs": [
        {
          "internalType": "uint256",
          "name": "",
          "type": "uint256"
        }
      ],
      "name": "records",
      "outputs": [
        {
          "internalType": "string",
          "name": "name",
          "type": "string"
        },
        {
          "internalType": "string",
          "name": "diagnosis",
          "type": "string"
        },
        {
          "internalType": "string",
          "name": "treatment",
          "type": "string"
        },
        {
          "internalType": "uint256",
          "name": "date",
          "type": "uint256"
        }
      ],
      "stateMutability": "view",
      "type": "function",
      "constant": true
    },
    {
      "inputs": [
        {
          "internalType": "address",
          "name": "user",
          "type": "address"
        }
      ],
      "name": "addAuthorized",
      "outputs": [],
      "stateMutability": "nonpayable",
      "type": "function"
    },
    {
      "inputs": [
        {
          "internalType": "address",
          "name": "user",
          "type": "address"
        }
      ],
      "name": "removeAuthorized",
      "outputs": [],
      "stateMutability": "nonpayable",
      "type": "function"
    },
    {
      "inputs": [
        {
          "internalType": "string",
          "name": "name",
          "type": "string"
        },
        {
          "internalType": "string",
          "name": "diagnosis",
          "type": "string"
        },
        {
          "internalType": "string",
          "name": "treatment",
          "type": "string"
        }
      ],
      "name": "createRecord",
      "outputs": [],
      "stateMutability": "nonpayable",
      "type": "function"
    },
    {
      "inputs": [
        {
          "internalType": "uint256",
          "name": "id",
          "type": "uint256"
        },
        {
          "internalType": "string",
          "name": "name",
          "type": "string"
        },
        {
          "internalType": "string",
          "name": "diagnosis",
          "type": "string"
        },
        {
          "internalType": "string",
          "name": "treatment",
          "type": "string"
        }
      ],
      "name": "updateRecord",
      "outputs": [],
      "stateMutability": "nonpayable",
      "type": "function"
    },
    {
      "inputs": [
        {
          "internalType": "uint256",
          "name": "id",
          "type": "uint256"
        }
      ],
      "name": "getRecord",
      "outputs": [
        {
          "internalType": "string",
          "name": "",
          "type": "string"
        },
        {
          "internalType": "string",
          "name": "",
          "type": "string"
        },
        {
          "internalType": "string",
          "name": "",
          "type": "string"
        },
        {
          "internalType": "uint256",
          "name": "",
          "type": "uint256"
        }
      ],
      "stateMutability": "view",
      "type": "function",
      "constant": true
    },
    {
      "inputs": [
        {
          "internalType": "uint256",
          "name": "id",
          "type": "uint256"
        }
      ],
      "name": "deleteRecord",
      "outputs": [],
      "stateMutability": "nonpayable",
      "type": "function"
    }
  ],
  "bytecode": "0x608060405234801561001057600080fd5b50336000806101000a81548173ffffffffffffffffffffffffffffffffffffffff021916908373ffffffffffffffffffffffffffffffffffffffff160217905550611557806100606000396000f3fe608060405234801561001057600080fd5b506004361061009e5760003560e01c8063900407bc11610066578063900407bc1461015f578063b91816111461017d578063cf1c316a146101ad578063e5b9b9f6146101c9578063facff5d2146101e55761009e565b806303e9e609146100a3578063061f9811146100d657806334461067146100f2578063485d7d94146101255780638da5cb5b14610141575b600080fd5b6100bd60048036038101906100b89190610be5565b610201565b6040516100cd9493929190610cb1565b60405180910390f35b6100f060048036038101906100eb9190610be5565b610470565b005b61010c60048036038101906101079190610be5565b61054d565b60405161011c9493929190610cb1565b60405180910390f35b61013f600480360381019061013a9190610d69565b610715565b005b6101496107fe565b6040516101569190610da5565b60405180910390f35b610167610822565b6040516101749190610dc0565b60405180910390f35b61019760048036038101906101929190610d69565b610828565b6040516101a49190610df6565b60405180910390f35b6101c760048036038101906101c29190610d69565b610848565b005b6101e360048036038101906101de9190610f46565b610930565b005b6101ff60048036038101906101fa9190611001565b610a10565b005b60608060606000600160003373ffffffffffffffffffffffffffffffffffffffff1673ffffffffffffffffffffffffffffffffffffffff16815260200190815260200160002060009054906101000a900460ff16610294576040517f08c379a000000000000000000000000000000000000000000000000000000000815260040161028b9061111a565b60405180910390fd5b600060026000878152602001908152602001600020905080600001816001018260020183600301548380546102c890611169565b80601f01602080910402602001604051908101604052809291908181526020018280546102f490611169565b80156103415780601f1061031657610100808354040283529160200191610341565b820191906000526020600020905b81548152906001019060200180831161032457829003601f168201915b5050505050935082805461035490611169565b80601f016020809104026020016040519081016040528092919081815260200182805461038090611169565b80156103cd5780601f106103a2576101008083540402835291602001916103cd565b820191906000526020600020905b8154815290600101906020018083116103b057829003601f168201915b505050505092508180546103e090611169565b80601f016020809104026020016040519081016040528092919081815260200182805461040c90611169565b80156104595780601f1061042e57610100808354040283529160200191610459565b820191906000526020600020905b81548152906001019060200180831161043c57829003601f168201915b505050505091509450945094509450509193509193565b600160003373ffffffffffffffffffffffffffffffffffffffff1673ffffffffffffffffffffffffffffffffffffffff16815260200190815260200160002060009054906101000a900460ff166104fc576040517f08c379a00000000000000000000000000000000000000000000000000000000081526004016104f39061111a565b60405180910390fd5b60026000828152602001908152602001600020600080820160006105209190610b3e565b6001820160006105309190610b3e565b6002820160006105409190610b3e565b6003820160009055505050565b600260205280600052604060002060009150905080600001805461057090611169565b80601f016020809104026020016040519081016040528092919081815260200182805461059c90611169565b80156105e95780601f106105be576101008083540402835291602001916105e9565b820191906000526020600020905b8154815290600101906020018083116105cc57829003601f168201915b5050505050908060010180546105fe90611169565b80601f016020809104026020016040519081016040528092919081815260200182805461062a90611169565b80156106775780601f1061064c57610100808354040283529160200191610677565b820191906000526020600020905b81548152906001019060200180831161065a57829003601f168201915b50505050509080600201805461068c90611169565b80601f01602080910402602001604051908101604052809291908181526020018280546106b890611169565b80156107055780601f106106da57610100808354040283529160200191610705565b820191906000526020600020905b8154815290600101906020018083116106e857829003601f168201915b5050505050908060030154905084565b60008054906101000a900473ffffffffffffffffffffffffffffffffffffffff1673ffffffffffffffffffffffffffffffffffffffff163373ffffffffffffffffffffffffffffffffffffffff16146107a3576040517f08c379a000000000000000000000000000000000000000000000000000000000815260040161079a9061120c565b60405180910390fd5b6000600160008373ffffffffffffffffffffffffffffffffffffffff1673ffffffffffffffffffffffffffffffffffffffff16815260200190815260200160002060006101000a81548160ff02191690831515021790555050565b60008054906101000a900473ffffffffffffffffffffffffffffffffffffffff1681565b60035481565b60016020528060005260406000206000915054906101000a900460ff1681565b60008054906101000a900473ffffffffffffffffffffffffffffffffffffffff1673ffffffffffffffffffffffffffffffffffffffff163373ffffffffffffffffffffffffffffffffffffffff16146108d6576040517f08c379a00000000000000000000000000000000000000000000000000000000081526004016108cd9061120c565b60405180910390fd5b60018060008373ffffffffffffffffffffffffffffffffffffffff1673ffffffffffffffffffffffffffffffffffffffff16815260200190815260200160002060006101000a81548160ff02191690831515021790555050565b600160003373ffffffffffffffffffffffffffffffffffffffff1673ffffffffffffffffffffffffffffffffffffffff16815260200190815260200160002060009054906101000a900460ff166109bc576040517f08c379a00000000000000000000000000000000000000000000000000000000081526004016109b39061111a565b60405180910390fd5b6000600260008681526020019081526020016000209050838160000190816109e491906113d8565b50828160010190816109f691906113d8565b5081816002019081610a0891906113d8565b505050505050565b600160003373ffffffffffffffffffffffffffffffffffffffff1673ffffffffffffffffffffffffffffffffffffffff16815260200190815260200160002060009054906101000a900460ff16610a9c576040517f08c379a0000000000000000000000000000000000000000000000000000000008152600401610a939061111a565b60405180910390fd5b6000600360008154610aad906114d9565b9190508190559050604051806080016040528085815260200184815260200183815260200142815250600260008381526020019081526020016000206000820151816000019081610afe91906113d8565b506020820151816001019081610b1491906113d8565b506040820151816002019081610b2a91906113d8565b506060820151816003015590505050505050565b508054610b4a90611169565b6000825580601f10610b5c5750610b7b565b601f016020900490600052602060002090810190610b7a9190610b7e565b5b50565b5b80821115610b97576000816000905550600101610b7f565b5090565b6000604051905090565b600080fd5b600080fd5b6000819050919050565b610bc281610baf565b8114610bcd57600080fd5b50565b600081359050610bdf81610bb9565b92915050565b600060208284031215610bfb57610bfa610ba5565b5b6000610c0984828501610bd0565b91505092915050565b600081519050919050565b600082825260208201905092915050565b60005b83811015610c4c578082015181840152602081019050610c31565b60008484015250505050565b6000601f19601f8301169050919050565b6000610c7482610c12565b610c7e8185610c1d565b9350610c8e818560208601610c2e565b610c9781610c58565b840191505092915050565b610cab81610baf565b82525050565b60006080820190508181036000830152610ccb8187610c69565b90508181036020830152610cdf8186610c69565b90508181036040830152610cf38185610c69565b9050610d026060830184610ca2565b95945050505050565b600073ffffffffffffffffffffffffffffffffffffffff82169050919050565b6000610d3682610d0b565b9050919050565b610d4681610d2b565b8114610d5157600080fd5b50565b600081359050610d6381610d3d565b92915050565b600060208284031215610d7f57610d7e610ba5565b5b6000610d8d84828501610d54565b91505092915050565b610d9f81610d2b565b82525050565b6000602082019050610dba6000830184610d96565b92915050565b6000602082019050610dd56000830184610ca2565b92915050565b60008115159050919050565b610df081610ddb565b82525050565b6000602082019050610e0b6000830184610de7565b92915050565b600080fd5b600080fd5b7f4e487b7100000000000000000000000000000000000000000000000000000000600052604160045260246000fd5b610e5382610c58565b810181811067ffffffffffffffff82111715610e7257610e71610e1b565b5b80604052505050565b6000610e85610b9b565b9050610e918282610e4a565b919050565b600067ffffffffffffffff821115610eb157610eb0610e1b565b5b610eba82610c58565b9050602081019050919050565b82818337600083830152505050565b6000610ee9610ee484610e96565b610e7b565b905082815260208101848484011115610f0557610f04610e16565b5b610f10848285610ec7565b509392505050565b600082601f830112610f2d57610f2c610e11565b5b8135610f3d848260208601610ed6565b91505092915050565b60008060008060808587031215610f6057610f5f610ba5565b5b6000610f6e87828801610bd0565b945050602085013567ffffffffffffffff811115610f8f57610f8e610baa565b5b610f9b87828801610f18565b935050604085013567ffffffffffffffff811115610fbc57610fbb610baa565b5b610fc887828801610f18565b925050606085013567ffffffffffffffff811115610fe957610fe8610baa565b5b610ff587828801610f18565b91505092959194509250565b60008060006060848603121561101a57611019610ba5565b5b600084013567ffffffffffffffff81111561103857611037610baa565b5b61104486828701610f18565b935050602084013567ffffffffffffffff81111561106557611064610baa565b5b61107186828701610f18565b925050604084013567ffffffffffffffff81111561109257611091610baa565b5b61109e86828701610f18565b9150509250925092565b7f4f6e6c7920617574686f72697a65642075736572732063616e2063616c6c207460008201527f6869732066756e6374696f6e2e00000000000000000000000000000000000000602082015250565b6000611104602d83610c1d565b915061110f826110a8565b604082019050919050565b60006020820190508181036000830152611133816110f7565b9050919050565b7f4e487b7100000000000000000000000000000000000000000000000000000000600052602260045260246000fd5b6000600282049050600182168061118157607f821691505b6020821081036111945761119361113a565b5b50919050565b7f4f6e6c79206f776e65722063616e2063616c6c20746869732066756e6374696f60008201527f6e2e000000000000000000000000000000000000000000000000000000000000602082015250565b60006111f6602283610c1d565b91506112018261119a565b604082019050919050565b60006020820190508181036000830152611225816111e9565b9050919050565b60008190508160005260206000209050919050565b60006020601f8301049050919050565b600082821b905092915050565b60006008830261128e7fffffffffffffffffffffffffffffffffffffffffffffffffffffffffffffffff82611251565b6112988683611251565b95508019841693508086168417925050509392505050565b6000819050919050565b60006112d56112d06112cb84610baf565b6112b0565b610baf565b9050919050565b6000819050919050565b6112ef836112ba565b6113036112fb826112dc565b84845461125e565b825550505050565b600090565b61131861130b565b6113238184846112e6565b505050565b5b818110156113475761133c600082611310565b600181019050611329565b5050565b601f82111561138c5761135d8161122c565b61136684611241565b81016020851015611375578190505b61138961138185611241565b830182611328565b50505b505050565b600082821c905092915050565b60006113af60001984600802611391565b1980831691505092915050565b60006113c8838361139e565b9150826002028217905092915050565b6113e182610c12565b67ffffffffffffffff8111156113fa576113f9610e1b565b5b6114048254611169565b61140f82828561134b565b600060209050601f8311600181146114425760008415611430578287015190505b61143a85826113bc565b8655506114a2565b601f1984166114508661122c565b60005b8281101561147857848901518255600182019150602085019450602081019050611453565b868310156114955784890151611491601f89168261139e565b8355505b6001600288020188555050505b505050505050565b7f4e487b7100000000000000000000000000000000000000000000000000000000600052601160045260246000fd5b60006114e482610baf565b91507fffffffffffffffffffffffffffffffffffffffffffffffffffffffffffffffff8203611516576115156114aa565b5b60018201905091905056fea264697066735822122028d4ce1100db08c8e68fe10522a214ab58dd988ed09bceb0360ca6c1c29cb0be64736f6c63430008130033",
  "immutableReferences": {},
  "source": "//SPDX-License-Identifier: MIT\r\npragma solidity ^0.8.0;\r\n\r\ncontract MedicalRecord {\r\n    struct PatientRecord {\r\n        string name;\r\n        string diagnosis;\r\n        string treatment;\r\n        uint256 date;\r\n    }\r\n\r\n    address public owner;\r\n    mapping(address => bool) public authorized;\r\n\r\n    mapping(uint256 => PatientRecord) public records;\r\n    uint256 public recordCount;\r\n\r\n    constructor() {\r\n        owner = msg.sender;\r\n    }\r\n\r\n    modifier onlyOwner() {\r\n        require(msg.sender == owner, \"Only owner can call this function.\");\r\n        _;\r\n    }\r\n\r\n    modifier onlyAuthorized() {\r\n        require(authorized[msg.sender], \"Only authorized users can call this function.\");\r\n        _;\r\n    }\r\n\r\n    function addAuthorized(address user) public onlyOwner {\r\n        authorized[user] = true;\r\n    }\r\n\r\n    function removeAuthorized(address user) public onlyOwner {\r\n        authorized[user] = false;\r\n    }\r\n\r\n    function createRecord(string memory name, string memory diagnosis, string memory treatment) public onlyAuthorized {\r\n        uint256 id = ++recordCount;\r\n        records[id] = PatientRecord(name, diagnosis, treatment, block.timestamp);\r\n    }\r\n\r\n    function updateRecord(uint256 id, string memory name, string memory diagnosis, string memory treatment) public onlyAuthorized {\r\n        PatientRecord storage record = records[id];\r\n        record.name = name;\r\n        record.diagnosis = diagnosis;\r\n        record.treatment = treatment;\r\n    }\r\n\r\n    function getRecord(uint256 id) public view onlyAuthorized returns (string memory, string memory, string memory, uint256) {\r\n        PatientRecord storage record = records[id];\r\n        return (record.name, record.diagnosis, record.treatment, record.date);\r\n    }\r\n\r\n    function deleteRecord(uint256 id) public onlyAuthorized {\r\n        delete records[id];\r\n    }\r\n}\r\n",
  "sourcePath": "C:\\Users\\DELL\\Desktop\\truffleproj\\healthdapp\\trialhealth\\contracts\\MedicalRecord.sol",
  "compiler": {
    "name": "solc",
    "version": "0.8.19+commit.7dd6d404.Emscripten.clang"
  },
  "schemaVersion": "3.4.13",
  "updatedAt": "2023-04-04T12:58:52.004Z",
  "networkType": "ethereum",
  "devdoc": {
    "kind": "dev",
    "methods": {},
    "version": 1
  },
  "userdoc": {
    "kind": "user",
    "methods": {},
    "version": 1
  }
}