{
  "contractName": "AppointmentBooking",
  "abi": [
    {
      "inputs": [
        {
          "internalType": "uint256",
          "name": "",
          "type": "uint256"
        }
      ],
      "name": "appointments",
      "outputs": [
        {
          "internalType": "address",
          "name": "patient",
          "type": "address"
        },
        {
          "internalType": "uint256",
          "name": "date",
          "type": "uint256"
        },
        {
          "internalType": "bool",
          "name": "booked",
          "type": "bool"
        }
      ],
      "stateMutability": "view",
      "type": "function"
    },
    {
      "inputs": [
        {
          "internalType": "uint256",
          "name": "date",
          "type": "uint256"
        }
      ],
      "name": "bookAppointment",
      "outputs": [],
      "stateMutability": "payable",
      "type": "function"
    },
    {
      "inputs": [],
      "name": "getAvailableAppointments",
      "outputs": [
        {
          "internalType": "uint256[]",
          "name": "",
          "type": "uint256[]"
        }
      ],
      "stateMutability": "view",
      "type": "function"
    }
  ],
  "bytecode": "0x608060405234801561001057600080fd5b5061089b806100206000396000f3fe6080604052600436106100345760003560e01c806312dc9013146100395780638e96fef314610078578063c645e739146100a3575b600080fd5b34801561004557600080fd5b50610060600480360381019061005b91906104ac565b6100bf565b60405161006f93929190610544565b60405180910390f35b34801561008457600080fd5b5061008d610126565b60405161009a9190610639565b60405180910390f35b6100bd60048036038101906100b891906104ac565b61030a565b005b600081815481106100cf57600080fd5b90600052602060002090600302016000915090508060000160009054906101000a900473ffffffffffffffffffffffffffffffffffffffff16908060010154908060020160009054906101000a900460ff16905083565b60606000808054905067ffffffffffffffff8111156101485761014761065b565b5b6040519080825280602002602001820160405280156101765781602001602082028036833780820191505090505b5090506000805b60008054905081101561025a576000818154811061019e5761019d61068a565b5b906000526020600020906003020160020160009054906101000a900460ff161580156101ee575042600082815481106101da576101d961068a565b5b906000526020600020906003020160010154115b1561024757600081815481106102075761020661068a565b5b90600052602060002090600302016001015483838151811061022c5761022b61068a565b5b6020026020010181815250508180610243906106e8565b9250505b8080610252906106e8565b91505061017d565b5060008167ffffffffffffffff8111156102775761027661065b565b5b6040519080825280602002602001820160405280156102a55781602001602082028036833780820191505090505b50905060005b82811015610300578381815181106102c6576102c561068a565b5b60200260200101518282815181106102e1576102e061068a565b5b60200260200101818152505080806102f8906106e8565b9150506102ab565b5080935050505090565b670de0b6b3a76400003414610354576040517f08c379a000000000000000000000000000000000000000000000000000000000815260040161034b906107b3565b60405180910390fd5b428111610396576040517f08c379a000000000000000000000000000000000000000000000000000000000815260040161038d90610845565b60405180910390fd5b600060405180606001604052803373ffffffffffffffffffffffffffffffffffffffff168152602001838152602001600115158152509050600081908060018154018082558091505060019003906000526020600020906003020160009091909190915060008201518160000160006101000a81548173ffffffffffffffffffffffffffffffffffffffff021916908373ffffffffffffffffffffffffffffffffffffffff1602179055506020820151816001015560408201518160020160006101000a81548160ff02191690831515021790555050505050565b600080fd5b6000819050919050565b61048981610476565b811461049457600080fd5b50565b6000813590506104a681610480565b92915050565b6000602082840312156104c2576104c1610471565b5b60006104d084828501610497565b91505092915050565b600073ffffffffffffffffffffffffffffffffffffffff82169050919050565b6000610504826104d9565b9050919050565b610514816104f9565b82525050565b61052381610476565b82525050565b60008115159050919050565b61053e81610529565b82525050565b6000606082019050610559600083018661050b565b610566602083018561051a565b6105736040830184610535565b949350505050565b600081519050919050565b600082825260208201905092915050565b6000819050602082019050919050565b6105b081610476565b82525050565b60006105c283836105a7565b60208301905092915050565b6000602082019050919050565b60006105e68261057b565b6105f08185610586565b93506105fb83610597565b8060005b8381101561062c57815161061388826105b6565b975061061e836105ce565b9250506001810190506105ff565b5085935050505092915050565b6000602082019050818103600083015261065381846105db565b905092915050565b7f4e487b7100000000000000000000000000000000000000000000000000000000600052604160045260246000fd5b7f4e487b7100000000000000000000000000000000000000000000000000000000600052603260045260246000fd5b7f4e487b7100000000000000000000000000000000000000000000000000000000600052601160045260246000fd5b60006106f382610476565b91507fffffffffffffffffffffffffffffffffffffffffffffffffffffffffffffffff8203610725576107246106b9565b5b600182019050919050565b600082825260208201905092915050565b7f5061796d656e74206f662031206574686572206973207265717569726564206660008201527f6f7220626f6f6b696e6720616e206170706f696e746d656e742e000000000000602082015250565b600061079d603a83610730565b91506107a882610741565b604082019050919050565b600060208201905081810360008301526107cc81610790565b9050919050565b7f4170706f696e746d656e742064617465206d75737420626520696e207468652060008201527f6675747572652e00000000000000000000000000000000000000000000000000602082015250565b600061082f602783610730565b915061083a826107d3565b604082019050919050565b6000602082019050818103600083015261085e81610822565b905091905056fea26469706673582212209cc76390f31d29266cc9e476617f0620c9135382161c6271a9731edf2921f54c64736f6c63430008130033",
  "immutableReferences": {},
  "source": "\r\n\r\n/*pragma solidity ^0.8.0;\r\n\r\ncontract MedicalRecord {\r\n    struct PatientRecord {\r\n        string name;\r\n        string diagnosis;\r\n        string treatment;\r\n        uint256 date;\r\n    }\r\n\r\n    address public owner;\r\n    mapping(address => bool) public authorized;\r\n\r\n    mapping(uint256 => PatientRecord) public records;\r\n    uint256 public recordCount;\r\n\r\n    constructor() {\r\n        owner = msg.sender;\r\n    }\r\n\r\n    modifier onlyOwner() {\r\n        require(msg.sender == owner, \"Only owner can call this function.\");\r\n        _;\r\n    }\r\n\r\n    modifier onlyAuthorized() {\r\n        require(authorized[msg.sender], \"Only authorized users can call this function.\");\r\n        _;\r\n    }\r\n\r\n    function addAuthorized(address user) public onlyOwner {\r\n        authorized[user] = true;\r\n    }\r\n\r\n    function removeAuthorized(address user) public onlyOwner {\r\n        authorized[user] = false;\r\n    }\r\n\r\n    function createRecord(string memory name, string memory diagnosis, string memory treatment) public onlyAuthorized {\r\n        uint256 id = ++recordCount;\r\n        records[id] = PatientRecord(name, diagnosis, treatment, block.timestamp);\r\n    }\r\n\r\n    function updateRecord(uint256 id, string memory name, string memory diagnosis, string memory treatment) public onlyAuthorized {\r\n        PatientRecord storage record = records[id];\r\n        record.name = name;\r\n        record.diagnosis = diagnosis;\r\n        record.treatment = treatment;\r\n    }\r\n\r\n    function getRecord(uint256 id) public view onlyAuthorized returns (string memory, string memory, string memory, uint256) {\r\n        PatientRecord storage record = records[id];\r\n        return (record.name, record.diagnosis, record.treatment, record.date);\r\n    }\r\n\r\n    function deleteRecord(uint256 id) public onlyAuthorized {\r\n        delete records[id];\r\n    }\r\n}\r\n*/\r\n/*\r\npragma solidity ^0.8.0;\r\n\r\ncontract DoctorAppointment {\r\n    struct Appointment {\r\n        uint256 appointmentTime; // Timestamp of the appointment\r\n        address payable patient; // Address of the patient who booked the appointment\r\n        bool booked; // Indicates whether the appointment is booked or not\r\n        bool paid; // Indicates whether the appointment fee has been paid or not\r\n    }\r\n\r\n    address public doctor; // Address of the doctor\r\n    uint256 public appointmentDuration; // Duration of each appointment\r\n    uint256 public appointmentFee; // Fee for each appointment\r\n    uint256 public maxAppointmentsPerDay; // Maximum number of appointments per day\r\n    mapping(uint256 => Appointment[]) public appointments; // Map of appointments for each day\r\n\r\n    constructor(address _doctor, uint256 _appointmentDuration, uint256 _appointmentFee, uint256 _maxAppointmentsPerDay) {\r\n        doctor = _doctor;\r\n        appointmentDuration = _appointmentDuration;\r\n        appointmentFee = _appointmentFee;\r\n        maxAppointmentsPerDay = _maxAppointmentsPerDay;\r\n    }\r\n\r\n    function bookAppointment(uint256 _day, uint256 _appointmentTime) external payable {\r\n        require(msg.sender != doctor, \"Doctor cannot book appointment\");\r\n        require(appointments[_day].length < maxAppointmentsPerDay, \"No available appointments on this day\");\r\n        require(_appointmentTime % appointmentDuration == 0, \"Appointment time must be a multiple of appointment duration\");\r\n        require(msg.value == appointmentFee, \"Incorrect appointment fee\");\r\n\r\n        uint256 appointmentSlot = _appointmentTime / appointmentDuration;\r\n        require(!appointments[_day][appointmentSlot].booked, \"Appointment already booked\");\r\n\r\n        appointments[_day][appointmentSlot] = Appointment({\r\n            appointmentTime: _appointmentTime,\r\n            patient: payable(msg.sender),\r\n            booked: true,\r\n            paid: true\r\n        });\r\n    }\r\n\r\n    function cancelAppointment(uint256 _day, uint256 _appointmentTime) external {\r\n        uint256 appointmentSlot = _appointmentTime / appointmentDuration;\r\n        Appointment storage appointment = appointments[_day][appointmentSlot];\r\n        require(appointment.patient == msg.sender, \"Only patient who booked the appointment can cancel it\");\r\n        require(!appointment.paid, \"Appointment fee already paid\");\r\n        appointment.booked = false;\r\n        appointment.patient.transfer(appointmentFee);\r\n    }\r\n}\r\n*/\r\n\r\n\r\n// SPDX-License-Identifier: MIT\r\n\r\n/*\r\npragma solidity >=0.5.16 <0.9.0;\r\n\r\ncontract BookingRoom {\r\n    struct Appointment {\r\n        address guest;\r\n        uint appointmentDate;\r\n        uint checkOutDate;\r\n    //    uint roomNumber;\r\n        uint totalPrice;\r\n        bool paid;\r\n    }\r\n\r\n    Appointment[] public Appointments;\r\n\r\n    uint public constant PRICE_PER_NIGHT = 1 ether;\r\n\r\n    event AppointmentCreated(address guest, uint appointmentDate, uint checkOutDate, uint totalPrice);\r\n    event AppointmentPaid(uint AppointmentId);\r\n\r\n    function createAppointment(uint appointmentDate, uint checkOutDate) public payable {\r\n        require(msg.value == (checkOutDate - appointmentDate) * PRICE_PER_NIGHT, \"Invalid payment amount.\");\r\n     //   require(roomNumber >= 1 && roomNumber <= 10, \"Invalid room number.\");\r\n        require(appointmentDate >= block.timestamp, \"Check-in date must be in the future.\");\r\n        require(checkOutDate > appointmentDate, \"Check-out date must be after check-in date.\");\r\n\r\n        Appointment memory Appointment = Appointment(msg.sender, appointmentDate, checkOutDate, msg.value, false);\r\n        Appointments.push(Appointment);\r\n        emit AppointmentCreated(msg.sender, appointmentDate, checkOutDate, msg.value);\r\n    }\r\n\r\n    function payAppointment(uint AppointmentId) public payable {\r\n        Appointment storage Appointment = Appointments[AppointmentId];\r\n        require(Appointment.guest == msg.sender, \"Only the guest who created the Appointment can pay.\");\r\n        require(Appointment.paid == false, \"Appointment has already been paid.\");\r\n\r\n        Appointment.paid = true;\r\n        emit AppointmentPaid(AppointmentId);\r\n    }\r\n}\r\n\r\n*/\r\n\r\n\r\npragma solidity >=0.5.0 <0.9.0;\r\n\r\ncontract AppointmentBooking {\r\n    struct Appointment {\r\n        address patient;\r\n        uint256 date;\r\n        bool booked;\r\n    }\r\n\r\n    Appointment[] public appointments;\r\n\r\n    function bookAppointment(uint256 date) public payable {\r\n        require(msg.value == 1 ether, \"Payment of 1 ether is required for booking an appointment.\");\r\n        require(date > block.timestamp, \"Appointment date must be in the future.\");\r\n        \r\n        Appointment memory newAppointment = Appointment({\r\n            patient: msg.sender,\r\n            date: date,\r\n            booked: true\r\n        });\r\n        \r\n        appointments.push(newAppointment);\r\n    }\r\n\r\n    function getAvailableAppointments() public view returns (uint256[] memory) {\r\n        uint256[] memory availableAppointments = new uint256[](appointments.length);\r\n        uint256 count = 0;\r\n        \r\n        for (uint256 i = 0; i < appointments.length; i++) {\r\n            if (!appointments[i].booked && appointments[i].date > block.timestamp) {\r\n                availableAppointments[count] = appointments[i].date;\r\n                count++;\r\n            }\r\n        }\r\n        \r\n        uint256[] memory result = new uint256[](count);\r\n        for (uint256 i = 0; i < count; i++) {\r\n            result[i] = availableAppointments[i];\r\n        }\r\n        \r\n        return result;\r\n    }\r\n}\r\n\r\n\r\n",
  "sourcePath": "C:\\Users\\DELL\\Desktop\\truffleproj\\healthdapp\\trialhealth\\contracts\\MedicalRecord.sol",
  "compiler": {
    "name": "solc",
    "version": "0.8.19+commit.7dd6d404.Emscripten.clang"
  },
  "schemaVersion": "3.4.13",
  "updatedAt": "2023-04-06T14:32:50.398Z",
  "devdoc": {
    "kind": "dev",
    "methods": {},
    "version": 1
  },
  "userdoc": {
    "kind": "user",
    "methods": {},
    "version": 1
  }
}