{
  "contractName": "bookAppointment",
  "abi": [
    {
      "anonymous": false,
      "inputs": [
        {
          "indexed": false,
          "internalType": "address",
          "name": "patient",
          "type": "address"
        },
        {
          "indexed": false,
          "internalType": "uint256",
          "name": "checkInDate",
          "type": "uint256"
        },
        {
          "indexed": false,
          "internalType": "uint256",
          "name": "checkOutDate",
          "type": "uint256"
        },
        {
          "indexed": false,
          "internalType": "uint256",
          "name": "roomNumber",
          "type": "uint256"
        },
        {
          "indexed": false,
          "internalType": "uint256",
          "name": "totalPrice",
          "type": "uint256"
        }
      ],
      "name": "ReservationCreated",
      "type": "event"
    },
    {
      "anonymous": false,
      "inputs": [
        {
          "indexed": false,
          "internalType": "uint256",
          "name": "reservationId",
          "type": "uint256"
        }
      ],
      "name": "ReservationPaid",
      "type": "event"
    },
    {
      "inputs": [],
      "name": "PRICE_PER_NIGHT",
      "outputs": [
        {
          "internalType": "uint256",
          "name": "",
          "type": "uint256"
        }
      ],
      "stateMutability": "view",
      "type": "function"
    },
    {
      "inputs": [
        {
          "internalType": "uint256",
          "name": "",
          "type": "uint256"
        }
      ],
      "name": "reservations",
      "outputs": [
        {
          "internalType": "address",
          "name": "patient",
          "type": "address"
        },
        {
          "internalType": "uint256",
          "name": "checkInDate",
          "type": "uint256"
        },
        {
          "internalType": "uint256",
          "name": "checkOutDate",
          "type": "uint256"
        },
        {
          "internalType": "uint256",
          "name": "roomNumber",
          "type": "uint256"
        },
        {
          "internalType": "uint256",
          "name": "totalPrice",
          "type": "uint256"
        },
        {
          "internalType": "bool",
          "name": "paid",
          "type": "bool"
        }
      ],
      "stateMutability": "view",
      "type": "function"
    },
    {
      "inputs": [
        {
          "internalType": "uint256",
          "name": "checkInDate",
          "type": "uint256"
        },
        {
          "internalType": "uint256",
          "name": "checkOutDate",
          "type": "uint256"
        },
        {
          "internalType": "uint256",
          "name": "roomNumber",
          "type": "uint256"
        }
      ],
      "name": "createReservation",
      "outputs": [],
      "stateMutability": "payable",
      "type": "function"
    },
    {
      "inputs": [
        {
          "internalType": "uint256",
          "name": "reservationId",
          "type": "uint256"
        }
      ],
      "name": "payReservation",
      "outputs": [],
      "stateMutability": "payable",
      "type": "function"
    }
  ],
  "bytecode": "0x608060405234801561001057600080fd5b50610b87806100206000396000f3fe60806040526004361061003f5760003560e01c8063067cf832146100445780633236717314610086578063a97606e8146100b1578063ac3696eb146100cd575b600080fd5b34801561005057600080fd5b5061006b60048036038101906100669190610592565b6100e9565b60405161007d9695949392919061062a565b60405180910390f35b34801561009257600080fd5b5061009b610162565b6040516100a8919061068b565b60405180910390f35b6100cb60048036038101906100c691906106a6565b61016e565b005b6100e760048036038101906100e29190610592565b6103f0565b005b600081815481106100f957600080fd5b90600052602060002090600602016000915090508060000160009054906101000a900473ffffffffffffffffffffffffffffffffffffffff16908060010154908060020154908060030154908060040154908060050160009054906101000a900460ff16905086565b670de0b6b3a764000081565b670de0b6b3a764000083836101839190610728565b61018d919061075c565b34146101ce576040517f08c379a00000000000000000000000000000000000000000000000000000000081526004016101c5906107fb565b60405180910390fd5b600181101580156101e05750600a8111155b61021f576040517f08c379a000000000000000000000000000000000000000000000000000000000815260040161021690610867565b60405180910390fd5b42831015610262576040517f08c379a0000000000000000000000000000000000000000000000000000000008152600401610259906108f9565b60405180910390fd5b8282116102a4576040517f08c379a000000000000000000000000000000000000000000000000000000000815260040161029b9061098b565b60405180910390fd5b60006040518060c001604052803373ffffffffffffffffffffffffffffffffffffffff168152602001858152602001848152602001838152602001348152602001600015158152509050600081908060018154018082558091505060019003906000526020600020906006020160009091909190915060008201518160000160006101000a81548173ffffffffffffffffffffffffffffffffffffffff021916908373ffffffffffffffffffffffffffffffffffffffff1602179055506020820151816001015560408201518160020155606082015181600301556080820151816004015560a08201518160050160006101000a81548160ff02191690831515021790555050507f509022422bbf77b15595d499f8074f7a17a74dab03db3dba27e25facc3bbb2e633858585346040516103e29594939291906109ab565b60405180910390a150505050565b6000808281548110610405576104046109fe565b5b906000526020600020906006020190503373ffffffffffffffffffffffffffffffffffffffff168160000160009054906101000a900473ffffffffffffffffffffffffffffffffffffffff1673ffffffffffffffffffffffffffffffffffffffff16146104a7576040517f08c379a000000000000000000000000000000000000000000000000000000000815260040161049e90610a9f565b60405180910390fd5b600015158160050160009054906101000a900460ff161515146104ff576040517f08c379a00000000000000000000000000000000000000000000000000000000081526004016104f690610b31565b60405180910390fd5b60018160050160006101000a81548160ff0219169083151502179055507f01a0ec53c315c57ffd474cf40365af2b634fde092d670498146cf241f955b8ed8260405161054b919061068b565b60405180910390a15050565b600080fd5b6000819050919050565b61056f8161055c565b811461057a57600080fd5b50565b60008135905061058c81610566565b92915050565b6000602082840312156105a8576105a7610557565b5b60006105b68482850161057d565b91505092915050565b600073ffffffffffffffffffffffffffffffffffffffff82169050919050565b60006105ea826105bf565b9050919050565b6105fa816105df565b82525050565b6106098161055c565b82525050565b60008115159050919050565b6106248161060f565b82525050565b600060c08201905061063f60008301896105f1565b61064c6020830188610600565b6106596040830187610600565b6106666060830186610600565b6106736080830185610600565b61068060a083018461061b565b979650505050505050565b60006020820190506106a06000830184610600565b92915050565b6000806000606084860312156106bf576106be610557565b5b60006106cd8682870161057d565b93505060206106de8682870161057d565b92505060406106ef8682870161057d565b9150509250925092565b7f4e487b7100000000000000000000000000000000000000000000000000000000600052601160045260246000fd5b60006107338261055c565b915061073e8361055c565b9250828203905081811115610756576107556106f9565b5b92915050565b60006107678261055c565b91506107728361055c565b92508282026107808161055c565b91508282048414831517610797576107966106f9565b5b5092915050565b600082825260208201905092915050565b7f496e76616c6964207061796d656e7420616d6f756e742e000000000000000000600082015250565b60006107e560178361079e565b91506107f0826107af565b602082019050919050565b60006020820190508181036000830152610814816107d8565b9050919050565b7f496e76616c696420726f6f6d206e756d6265722e000000000000000000000000600082015250565b600061085160148361079e565b915061085c8261081b565b602082019050919050565b6000602082019050818103600083015261088081610844565b9050919050565b7f436865636b2d696e2064617465206d75737420626520696e207468652066757460008201527f7572652e00000000000000000000000000000000000000000000000000000000602082015250565b60006108e360248361079e565b91506108ee82610887565b604082019050919050565b60006020820190508181036000830152610912816108d6565b9050919050565b7f436865636b2d6f75742064617465206d7573742062652061667465722063686560008201527f636b2d696e20646174652e000000000000000000000000000000000000000000602082015250565b6000610975602b8361079e565b915061098082610919565b604082019050919050565b600060208201905081810360008301526109a481610968565b9050919050565b600060a0820190506109c060008301886105f1565b6109cd6020830187610600565b6109da6040830186610600565b6109e76060830185610600565b6109f46080830184610600565b9695505050505050565b7f4e487b7100000000000000000000000000000000000000000000000000000000600052603260045260246000fd5b7f4f6e6c79207468652070617469656e742077686f20637265617465642074686560008201527f207265736572766174696f6e2063616e207061792e0000000000000000000000602082015250565b6000610a8960358361079e565b9150610a9482610a2d565b604082019050919050565b60006020820190508181036000830152610ab881610a7c565b9050919050565b7f5265736572766174696f6e2068617320616c7265616479206265656e2070616960008201527f642e000000000000000000000000000000000000000000000000000000000000602082015250565b6000610b1b60228361079e565b9150610b2682610abf565b604082019050919050565b60006020820190508181036000830152610b4a81610b0e565b905091905056fea26469706673582212205c423db1e4572bc1ca1429d9d848ac6ddccdaa6f1c6dcb8ef512c2ef1895faf364736f6c63430008130033",
  "immutableReferences": {},
  "source": "\r\n\r\n/*pragma solidity ^0.8.0;\r\n\r\ncontract MedicalRecord {\r\n    struct PatientRecord {\r\n        string name;\r\n        string diagnosis;\r\n        string treatment;\r\n        uint256 date;\r\n    }\r\n\r\n    address public owner;\r\n    mapping(address => bool) public authorized;\r\n\r\n    mapping(uint256 => PatientRecord) public records;\r\n    uint256 public recordCount;\r\n\r\n    constructor() {\r\n        owner = msg.sender;\r\n    }\r\n\r\n    modifier onlyOwner() {\r\n        require(msg.sender == owner, \"Only owner can call this function.\");\r\n        _;\r\n    }\r\n\r\n    modifier onlyAuthorized() {\r\n        require(authorized[msg.sender], \"Only authorized users can call this function.\");\r\n        _;\r\n    }\r\n\r\n    function addAuthorized(address user) public onlyOwner {\r\n        authorized[user] = true;\r\n    }\r\n\r\n    function removeAuthorized(address user) public onlyOwner {\r\n        authorized[user] = false;\r\n    }\r\n\r\n    function createRecord(string memory name, string memory diagnosis, string memory treatment) public onlyAuthorized {\r\n        uint256 id = ++recordCount;\r\n        records[id] = PatientRecord(name, diagnosis, treatment, block.timestamp);\r\n    }\r\n\r\n    function updateRecord(uint256 id, string memory name, string memory diagnosis, string memory treatment) public onlyAuthorized {\r\n        PatientRecord storage record = records[id];\r\n        record.name = name;\r\n        record.diagnosis = diagnosis;\r\n        record.treatment = treatment;\r\n    }\r\n\r\n    function getRecord(uint256 id) public view onlyAuthorized returns (string memory, string memory, string memory, uint256) {\r\n        PatientRecord storage record = records[id];\r\n        return (record.name, record.diagnosis, record.treatment, record.date);\r\n    }\r\n\r\n    function deleteRecord(uint256 id) public onlyAuthorized {\r\n        delete records[id];\r\n    }\r\n}\r\n*/\r\n/*\r\npragma solidity ^0.8.0;\r\n\r\ncontract DoctorAppointment {\r\n    struct Appointment {\r\n        uint256 appointmentTime; // Timestamp of the appointment\r\n        address payable patient; // Address of the patient who booked the appointment\r\n        bool booked; // Indicates whether the appointment is booked or not\r\n        bool paid; // Indicates whether the appointment fee has been paid or not\r\n    }\r\n\r\n    address public doctor; // Address of the doctor\r\n    uint256 public appointmentDuration; // Duration of each appointment\r\n    uint256 public appointmentFee; // Fee for each appointment\r\n    uint256 public maxAppointmentsPerDay; // Maximum number of appointments per day\r\n    mapping(uint256 => Appointment[]) public appointments; // Map of appointments for each day\r\n\r\n    constructor(address _doctor, uint256 _appointmentDuration, uint256 _appointmentFee, uint256 _maxAppointmentsPerDay) {\r\n        doctor = _doctor;\r\n        appointmentDuration = _appointmentDuration;\r\n        appointmentFee = _appointmentFee;\r\n        maxAppointmentsPerDay = _maxAppointmentsPerDay;\r\n    }\r\n\r\n    function bookAppointment(uint256 _day, uint256 _appointmentTime) external payable {\r\n        require(msg.sender != doctor, \"Doctor cannot book appointment\");\r\n        require(appointments[_day].length < maxAppointmentsPerDay, \"No available appointments on this day\");\r\n        require(_appointmentTime % appointmentDuration == 0, \"Appointment time must be a multiple of appointment duration\");\r\n        require(msg.value == appointmentFee, \"Incorrect appointment fee\");\r\n\r\n        uint256 appointmentSlot = _appointmentTime / appointmentDuration;\r\n        require(!appointments[_day][appointmentSlot].booked, \"Appointment already booked\");\r\n\r\n        appointments[_day][appointmentSlot] = Appointment({\r\n            appointmentTime: _appointmentTime,\r\n            patient: payable(msg.sender),\r\n            booked: true,\r\n            paid: true\r\n        });\r\n    }\r\n\r\n    function cancelAppointment(uint256 _day, uint256 _appointmentTime) external {\r\n        uint256 appointmentSlot = _appointmentTime / appointmentDuration;\r\n        Appointment storage appointment = appointments[_day][appointmentSlot];\r\n        require(appointment.patient == msg.sender, \"Only patient who booked the appointment can cancel it\");\r\n        require(!appointment.paid, \"Appointment fee already paid\");\r\n        appointment.booked = false;\r\n        appointment.patient.transfer(appointmentFee);\r\n    }\r\n}\r\n*/\r\n\r\n\r\n// SPDX-License-Identifier: MIT\r\n\r\n/*\r\npragma solidity >=0.5.16 <0.9.0;\r\n\r\ncontract bookAppointment {\r\n    struct Appointment {\r\n        address patient;\r\n        uint appointmentDate;\r\n        uint checkOutDate;\r\n    //    uint roomNumber;\r\n        uint totalPrice;\r\n        bool paid;\r\n    }\r\n\r\n    Appointment[] public Appointments;\r\n\r\n    uint public constant PRICE_PER_NIGHT = 1 ether;\r\n\r\n    event AppointmentCreated(address patient, uint appointmentDate, uint checkOutDate, uint totalPrice);\r\n    event AppointmentPaid(uint AppointmentId);\r\n\r\n    function createAppointment(uint appointmentDate, uint checkOutDate) public payable {\r\n        require(msg.value == (checkOutDate - appointmentDate) * PRICE_PER_NIGHT, \"Invalid payment amount.\");\r\n     //   require(roomNumber >= 1 && roomNumber <= 10, \"Invalid room number.\");\r\n        require(appointmentDate >= block.timestamp, \"Check-in date must be in the future.\");\r\n        require(checkOutDate > appointmentDate, \"Check-out date must be after check-in date.\");\r\n\r\n        Appointment memory Appointment = Appointment(msg.sender, appointmentDate, checkOutDate, msg.value, false);\r\n        Appointments.push(Appointment);\r\n        emit AppointmentCreated(msg.sender, appointmentDate, checkOutDate, msg.value);\r\n    }\r\n\r\n    function payAppointment(uint AppointmentId) public payable {\r\n        Appointment storage Appointment = Appointments[AppointmentId];\r\n        require(Appointment.patient == msg.sender, \"Only the patient who created the Appointment can pay.\");\r\n        require(Appointment.paid == false, \"Appointment has already been paid.\");\r\n\r\n        Appointment.paid = true;\r\n        emit AppointmentPaid(AppointmentId);\r\n    }\r\n}\r\n\r\n*/\r\n\r\npragma solidity >=0.5.16 <0.9.0;\r\n\r\ncontract bookAppointment {\r\n    struct Reservation {\r\n        address patient;\r\n        uint checkInDate;\r\n        uint checkOutDate;\r\n        uint roomNumber;\r\n        uint totalPrice;\r\n        bool paid;\r\n    }\r\n\r\n    Reservation[] public reservations;\r\n\r\n    uint public constant PRICE_PER_NIGHT = 1 ether;\r\n\r\n    event ReservationCreated(address patient, uint checkInDate, uint checkOutDate, uint roomNumber, uint totalPrice);\r\n    event ReservationPaid(uint reservationId);\r\n\r\n    function createReservation(uint checkInDate, uint checkOutDate, uint roomNumber) public payable {\r\n        require(msg.value == (checkOutDate - checkInDate) * PRICE_PER_NIGHT, \"Invalid payment amount.\");\r\n        require(roomNumber >= 1 && roomNumber <= 10, \"Invalid room number.\");\r\n        require(checkInDate >= block.timestamp, \"Check-in date must be in the future.\");\r\n        require(checkOutDate > checkInDate, \"Check-out date must be after check-in date.\");\r\n\r\n        Reservation memory reservation = Reservation(msg.sender, checkInDate, checkOutDate, roomNumber, msg.value, false);\r\n        reservations.push(reservation);\r\n        emit ReservationCreated(msg.sender, checkInDate, checkOutDate, roomNumber, msg.value);\r\n    }\r\n\r\n    function payReservation(uint reservationId) public payable {\r\n        Reservation storage reservation = reservations[reservationId];\r\n        require(reservation.patient == msg.sender, \"Only the patient who created the reservation can pay.\");\r\n        require(reservation.paid == false, \"Reservation has already been paid.\");\r\n\r\n        reservation.paid = true;\r\n        emit ReservationPaid(reservationId);\r\n    }\r\n}\r\n",
  "sourcePath": "C:\\Users\\DELL\\Desktop\\truffleproj\\healthdapp\\trialhealth\\contracts\\MedicalRecord.sol",
  "compiler": {
    "name": "solc",
    "version": "0.8.19+commit.7dd6d404.Emscripten.clang"
  },
  "schemaVersion": "3.4.13",
  "updatedAt": "2023-04-06T17:17:27.268Z",
  "devdoc": {
    "kind": "dev",
    "methods": {},
    "version": 1
  },
  "userdoc": {
    "kind": "user",
    "methods": {},
    "version": 1
  }
}