{
  "contractName": "BookingAppointement",
  "abi": [
    {
      "anonymous": false,
      "inputs": [
        {
          "indexed": false,
          "internalType": "address",
          "name": "patient",
          "type": "address"
        },
        {
          "indexed": false,
          "internalType": "uint256",
          "name": "appointmentDate",
          "type": "uint256"
        },
        {
          "indexed": false,
          "internalType": "uint256",
          "name": "checkOutDate",
          "type": "uint256"
        },
        {
          "indexed": false,
          "internalType": "uint256",
          "name": "totalPrice",
          "type": "uint256"
        }
      ],
      "name": "AppointmentsCreated",
      "type": "event"
    },
    {
      "anonymous": false,
      "inputs": [
        {
          "indexed": false,
          "internalType": "uint256",
          "name": "AppointmentsId",
          "type": "uint256"
        }
      ],
      "name": "AppointmentsPaid",
      "type": "event"
    },
    {
      "inputs": [],
      "name": "PRICE_PER_APPOINTMENT",
      "outputs": [
        {
          "internalType": "uint256",
          "name": "",
          "type": "uint256"
        }
      ],
      "stateMutability": "view",
      "type": "function"
    },
    {
      "inputs": [
        {
          "internalType": "uint256",
          "name": "",
          "type": "uint256"
        }
      ],
      "name": "appointment",
      "outputs": [
        {
          "internalType": "address",
          "name": "patient",
          "type": "address"
        },
        {
          "internalType": "uint256",
          "name": "appointmentDate",
          "type": "uint256"
        },
        {
          "internalType": "uint256",
          "name": "checkOutDate",
          "type": "uint256"
        },
        {
          "internalType": "uint256",
          "name": "totalPrice",
          "type": "uint256"
        },
        {
          "internalType": "bool",
          "name": "paid",
          "type": "bool"
        }
      ],
      "stateMutability": "view",
      "type": "function"
    },
    {
      "inputs": [
        {
          "internalType": "uint256",
          "name": "appointmentDate",
          "type": "uint256"
        },
        {
          "internalType": "uint256",
          "name": "checkOutDate",
          "type": "uint256"
        }
      ],
      "name": "createAppointments",
      "outputs": [],
      "stateMutability": "payable",
      "type": "function"
    },
    {
      "inputs": [
        {
          "internalType": "uint256",
          "name": "AppointmentsId",
          "type": "uint256"
        }
      ],
      "name": "payAppointments",
      "outputs": [],
      "stateMutability": "payable",
      "type": "function"
    }
  ],
  "bytecode": "0x608060405234801561001057600080fd5b50610a81806100206000396000f3fe60806040526004361061003f5760003560e01c806306d69f5e1461004457806312010caf1461006f57806346eb955c1461008b578063f2b5f71a146100a7575b600080fd5b34801561005057600080fd5b506100596100e8565b6040516100669190610505565b60405180910390f35b61008960048036038101906100849190610551565b6100f4565b005b6100a560048036038101906100a0919061057e565b61025b565b005b3480156100b357600080fd5b506100ce60048036038101906100c99190610551565b610479565b6040516100df95949392919061061a565b60405180910390f35b670de0b6b3a764000081565b60008082815481106101095761010861066d565b5b906000526020600020906005020190503373ffffffffffffffffffffffffffffffffffffffff168160000160009054906101000a900473ffffffffffffffffffffffffffffffffffffffff1673ffffffffffffffffffffffffffffffffffffffff16146101ab576040517f08c379a00000000000000000000000000000000000000000000000000000000081526004016101a29061071f565b60405180910390fd5b600015158160040160009054906101000a900460ff16151514610203576040517f08c379a00000000000000000000000000000000000000000000000000000000081526004016101fa906107b1565b60405180910390fd5b60018160040160006101000a81548160ff0219169083151502179055507f56631c6b3434498e0048cd9c8d9742d75db86dc034a066e8b35d253858f4fd688260405161024f9190610505565b60405180910390a15050565b670de0b6b3a764000082826102709190610800565b61027a9190610834565b34146102bb576040517f08c379a00000000000000000000000000000000000000000000000000000000081526004016102b2906108c2565b60405180910390fd5b428210156102fe576040517f08c379a00000000000000000000000000000000000000000000000000000000081526004016102f590610954565b60405180910390fd5b818111610340576040517f08c379a0000000000000000000000000000000000000000000000000000000008152600401610337906109e6565b60405180910390fd5b60006040518060a001604052803373ffffffffffffffffffffffffffffffffffffffff168152602001848152602001838152602001348152602001600015158152509050600081908060018154018082558091505060019003906000526020600020906005020160009091909190915060008201518160000160006101000a81548173ffffffffffffffffffffffffffffffffffffffff021916908373ffffffffffffffffffffffffffffffffffffffff16021790555060208201518160010155604082015181600201556060820151816003015560808201518160040160006101000a81548160ff02191690831515021790555050507f7e3bfe064fc165ac9d00fdb9cacbc9076f51e1b81f0038372a4d0341acb1deac3384843460405161046c9493929190610a06565b60405180910390a1505050565b6000818154811061048957600080fd5b90600052602060002090600502016000915090508060000160009054906101000a900473ffffffffffffffffffffffffffffffffffffffff16908060010154908060020154908060030154908060040160009054906101000a900460ff16905085565b6000819050919050565b6104ff816104ec565b82525050565b600060208201905061051a60008301846104f6565b92915050565b600080fd5b61052e816104ec565b811461053957600080fd5b50565b60008135905061054b81610525565b92915050565b60006020828403121561056757610566610520565b5b60006105758482850161053c565b91505092915050565b6000806040838503121561059557610594610520565b5b60006105a38582860161053c565b92505060206105b48582860161053c565b9150509250929050565b600073ffffffffffffffffffffffffffffffffffffffff82169050919050565b60006105e9826105be565b9050919050565b6105f9816105de565b82525050565b60008115159050919050565b610614816105ff565b82525050565b600060a08201905061062f60008301886105f0565b61063c60208301876104f6565b61064960408301866104f6565b61065660608301856104f6565b610663608083018461060b565b9695505050505050565b7f4e487b7100000000000000000000000000000000000000000000000000000000600052603260045260246000fd5b600082825260208201905092915050565b7f4f6e6c79207468652070617469656e742077686f20637265617465642074686560008201527f204170706f696e746d656e74732063616e207061792e00000000000000000000602082015250565b600061070960368361069c565b9150610714826106ad565b604082019050919050565b60006020820190508181036000830152610738816106fc565b9050919050565b7f4170706f696e746d656e74732068617320616c7265616479206265656e20706160008201527f69642e0000000000000000000000000000000000000000000000000000000000602082015250565b600061079b60238361069c565b91506107a68261073f565b604082019050919050565b600060208201905081810360008301526107ca8161078e565b9050919050565b7f4e487b7100000000000000000000000000000000000000000000000000000000600052601160045260246000fd5b600061080b826104ec565b9150610816836104ec565b925082820390508181111561082e5761082d6107d1565b5b92915050565b600061083f826104ec565b915061084a836104ec565b9250828202610858816104ec565b9150828204841483151761086f5761086e6107d1565b5b5092915050565b7f496e76616c6964207061796d656e7420616d6f756e742e000000000000000000600082015250565b60006108ac60178361069c565b91506108b782610876565b602082019050919050565b600060208201905081810360008301526108db8161089f565b9050919050565b7f436865636b2d696e2064617465206d75737420626520696e207468652066757460008201527f7572652e00000000000000000000000000000000000000000000000000000000602082015250565b600061093e60248361069c565b9150610949826108e2565b604082019050919050565b6000602082019050818103600083015261096d81610931565b9050919050565b7f436865636b2d6f75742064617465206d7573742062652061667465722063686560008201527f636b2d696e20646174652e000000000000000000000000000000000000000000602082015250565b60006109d0602b8361069c565b91506109db82610974565b604082019050919050565b600060208201905081810360008301526109ff816109c3565b9050919050565b6000608082019050610a1b60008301876105f0565b610a2860208301866104f6565b610a3560408301856104f6565b610a4260608301846104f6565b9594505050505056fea2646970667358221220bd1c308093a81f9295dba18d83261b7a73b1b1a59f754d89be869dfc5ae7a77364736f6c63430008130033",
  "immutableReferences": {},
  "source": "\r\n\r\n/*pragma solidity ^0.8.0;\r\n\r\ncontract MedicalRecord {\r\n    struct PatientRecord {\r\n        string name;\r\n        string diagnosis;\r\n        string treatment;\r\n        uint256 date;\r\n    }\r\n\r\n    address public owner;\r\n    mapping(address => bool) public authorized;\r\n\r\n    mapping(uint256 => PatientRecord) public records;\r\n    uint256 public recordCount;\r\n\r\n    constructor() {\r\n        owner = msg.sender;\r\n    }\r\n\r\n    modifier onlyOwner() {\r\n        require(msg.sender == owner, \"Only owner can call this function.\");\r\n        _;\r\n    }\r\n\r\n    modifier onlyAuthorized() {\r\n        require(authorized[msg.sender], \"Only authorized users can call this function.\");\r\n        _;\r\n    }\r\n\r\n    function addAuthorized(address user) public onlyOwner {\r\n        authorized[user] = true;\r\n    }\r\n\r\n    function removeAuthorized(address user) public onlyOwner {\r\n        authorized[user] = false;\r\n    }\r\n\r\n    function createRecord(string memory name, string memory diagnosis, string memory treatment) public onlyAuthorized {\r\n        uint256 id = ++recordCount;\r\n        records[id] = PatientRecord(name, diagnosis, treatment, block.timestamp);\r\n    }\r\n\r\n    function updateRecord(uint256 id, string memory name, string memory diagnosis, string memory treatment) public onlyAuthorized {\r\n        PatientRecord storage record = records[id];\r\n        record.name = name;\r\n        record.diagnosis = diagnosis;\r\n        record.treatment = treatment;\r\n    }\r\n\r\n    function getRecord(uint256 id) public view onlyAuthorized returns (string memory, string memory, string memory, uint256) {\r\n        PatientRecord storage record = records[id];\r\n        return (record.name, record.diagnosis, record.treatment, record.date);\r\n    }\r\n\r\n    function deleteRecord(uint256 id) public onlyAuthorized {\r\n        delete records[id];\r\n    }\r\n}\r\n*/\r\n/*\r\npragma solidity ^0.8.0;\r\n\r\ncontract DoctorAppointment {\r\n    struct Appointment {\r\n        uint256 appointmentTime; // Timestamp of the appointment\r\n        address payable patient; // Address of the patient who booked the appointment\r\n        bool booked; // Indicates whether the appointment is booked or not\r\n        bool paid; // Indicates whether the appointment fee has been paid or not\r\n    }\r\n\r\n    address public doctor; // Address of the doctor\r\n    uint256 public appointmentDuration; // Duration of each appointment\r\n    uint256 public appointmentFee; // Fee for each appointment\r\n    uint256 public maxAppointmentsPerDay; // Maximum number of appointments per day\r\n    mapping(uint256 => Appointment[]) public appointments; // Map of appointments for each day\r\n\r\n    constructor(address _doctor, uint256 _appointmentDuration, uint256 _appointmentFee, uint256 _maxAppointmentsPerDay) {\r\n        doctor = _doctor;\r\n        appointmentDuration = _appointmentDuration;\r\n        appointmentFee = _appointmentFee;\r\n        maxAppointmentsPerDay = _maxAppointmentsPerDay;\r\n    }\r\n\r\n    function bookAppointment(uint256 _day, uint256 _appointmentTime) external payable {\r\n        require(msg.sender != doctor, \"Doctor cannot book appointment\");\r\n        require(appointments[_day].length < maxAppointmentsPerDay, \"No available appointments on this day\");\r\n        require(_appointmentTime % appointmentDuration == 0, \"Appointment time must be a multiple of appointment duration\");\r\n        require(msg.value == appointmentFee, \"Incorrect appointment fee\");\r\n\r\n        uint256 appointmentSlot = _appointmentTime / appointmentDuration;\r\n        require(!appointments[_day][appointmentSlot].booked, \"Appointment already booked\");\r\n\r\n        appointments[_day][appointmentSlot] = Appointment({\r\n            appointmentTime: _appointmentTime,\r\n            patient: payable(msg.sender),\r\n            booked: true,\r\n            paid: true\r\n        });\r\n    }\r\n\r\n    function cancelAppointment(uint256 _day, uint256 _appointmentTime) external {\r\n        uint256 appointmentSlot = _appointmentTime / appointmentDuration;\r\n        Appointment storage appointment = appointments[_day][appointmentSlot];\r\n        require(appointment.patient == msg.sender, \"Only patient who booked the appointment can cancel it\");\r\n        require(!appointment.paid, \"Appointment fee already paid\");\r\n        appointment.booked = false;\r\n        appointment.patient.transfer(appointmentFee);\r\n    }\r\n}\r\n*/\r\n// SPDX-License-Identifier: MIT\r\npragma solidity >=0.5.16 <0.9.0;\r\n\r\ncontract BookingAppointement {\r\n    struct Appointments {\r\n        address patient;\r\n        uint appointmentDate;\r\n        uint checkOutDate;\r\n    //    uint roomNumber;\r\n        uint totalPrice;\r\n        bool paid;\r\n    }\r\n\r\n    Appointments[] public appointment;\r\n\r\n    uint public constant PRICE_PER_APPOINTMENT = 1 ether;\r\n\r\n    event AppointmentsCreated(address patient, uint appointmentDate, uint checkOutDate, uint totalPrice);\r\n    event AppointmentsPaid(uint AppointmentsId);\r\n\r\n    function createAppointments(uint appointmentDate, uint checkOutDate) public payable {\r\n        require(msg.value == (checkOutDate - appointmentDate) * PRICE_PER_APPOINTMENT, \"Invalid payment amount.\");\r\n     //   require(roomNumber >= 1 && roomNumber <= 10, \"Invalid room number.\");\r\n        require(appointmentDate >= block.timestamp, \"Check-in date must be in the future.\");\r\n        require(checkOutDate > appointmentDate, \"Check-out date must be after check-in date.\");\r\n\r\n        Appointments memory Appointments = Appointments(msg.sender, appointmentDate, checkOutDate, msg.value, false);\r\n        appointment.push(Appointments);\r\n        emit AppointmentsCreated(msg.sender, appointmentDate, checkOutDate, msg.value);\r\n    }\r\n\r\n    function payAppointments(uint AppointmentsId) public payable {\r\n        Appointments storage Appointments = appointment[AppointmentsId];\r\n        require(Appointments.patient == msg.sender, \"Only the patient who created the Appointments can pay.\");\r\n        require(Appointments.paid == false, \"Appointments has already been paid.\");\r\n\r\n        Appointments.paid = true;\r\n        emit AppointmentsPaid(AppointmentsId);\r\n    }\r\n}\r\n",
  "sourcePath": "C:\\Users\\DELL\\Desktop\\truffleproj\\healthdapp\\trialhealth\\contracts\\MedicalRecord.sol",
  "compiler": {
    "name": "solc",
    "version": "0.8.19+commit.7dd6d404.Emscripten.clang"
  },
  "schemaVersion": "3.4.13",
  "updatedAt": "2023-04-06T14:27:20.587Z",
  "devdoc": {
    "kind": "dev",
    "methods": {},
    "version": 1
  },
  "userdoc": {
    "kind": "user",
    "methods": {},
    "version": 1
  }
}