{
  "contractName": "Calend3",
  "abi": [
    {
      "inputs": [],
      "stateMutability": "nonpayable",
      "type": "constructor"
    },
    {
      "inputs": [],
      "name": "owner",
      "outputs": [
        {
          "internalType": "address payable",
          "name": "",
          "type": "address"
        }
      ],
      "stateMutability": "view",
      "type": "function"
    },
    {
      "inputs": [],
      "name": "getRate",
      "outputs": [
        {
          "internalType": "uint256",
          "name": "",
          "type": "uint256"
        }
      ],
      "stateMutability": "view",
      "type": "function"
    },
    {
      "inputs": [
        {
          "internalType": "uint256",
          "name": "_rate",
          "type": "uint256"
        }
      ],
      "name": "setRate",
      "outputs": [],
      "stateMutability": "nonpayable",
      "type": "function"
    },
    {
      "inputs": [],
      "name": "getAppointments",
      "outputs": [
        {
          "components": [
            {
              "internalType": "string",
              "name": "title",
              "type": "string"
            },
            {
              "internalType": "address",
              "name": "attendee",
              "type": "address"
            },
            {
              "internalType": "uint256",
              "name": "startTime",
              "type": "uint256"
            },
            {
              "internalType": "uint256",
              "name": "endTime",
              "type": "uint256"
            },
            {
              "internalType": "uint256",
              "name": "amountPaid",
              "type": "uint256"
            }
          ],
          "internalType": "struct Calend3.Appointment[]",
          "name": "",
          "type": "tuple[]"
        }
      ],
      "stateMutability": "view",
      "type": "function"
    },
    {
      "inputs": [
        {
          "internalType": "string",
          "name": "title",
          "type": "string"
        },
        {
          "internalType": "uint256",
          "name": "startTime",
          "type": "uint256"
        },
        {
          "internalType": "uint256",
          "name": "endTime",
          "type": "uint256"
        }
      ],
      "name": "createAppointment",
      "outputs": [],
      "stateMutability": "payable",
      "type": "function"
    }
  ],
  "bytecode": "0x608060405234801561001057600080fd5b5033600160006101000a81548173ffffffffffffffffffffffffffffffffffffffff021916908373ffffffffffffffffffffffffffffffffffffffff160217905550611047806100616000396000f3fe60806040526004361061004a5760003560e01c806334fcf4371461004f57806359c35bdf14610078578063679aefce146100945780638da5cb5b146100bf57806396b80d08146100ea575b600080fd5b34801561005b57600080fd5b5061007660048036038101906100719190610622565b610115565b005b610092600480360381019061008d9190610795565b6101af565b005b3480156100a057600080fd5b506100a96103ff565b6040516100b69190610813565b60405180910390f35b3480156100cb57600080fd5b506100d4610408565b6040516100e1919061086f565b60405180910390f35b3480156100f657600080fd5b506100ff61042e565b60405161010c9190610a71565b60405180910390f35b600160009054906101000a900473ffffffffffffffffffffffffffffffffffffffff1673ffffffffffffffffffffffffffffffffffffffff163373ffffffffffffffffffffffffffffffffffffffff16146101a5576040517f08c379a000000000000000000000000000000000000000000000000000000000815260040161019c90610af0565b60405180910390fd5b8060008190555050565b6101b7610593565b8381600001819052508281604001818152505081816060018181525050600054603c84846101e59190610b3f565b6101ef9190610ba2565b6101f99190610bd3565b81608001818152505033816020019073ffffffffffffffffffffffffffffffffffffffff16908173ffffffffffffffffffffffffffffffffffffffff16815250508060800151341015610281576040517f08c379a000000000000000000000000000000000000000000000000000000000815260040161027890610c61565b60405180910390fd5b6000600160009054906101000a900473ffffffffffffffffffffffffffffffffffffffff1673ffffffffffffffffffffffffffffffffffffffff16346040516102c990610cb2565b60006040518083038185875af1925050503d8060008114610306576040519150601f19603f3d011682016040523d82523d6000602084013e61030b565b606091505b505090508061034f576040517f08c379a000000000000000000000000000000000000000000000000000000000815260040161034690610d13565b60405180910390fd5b600282908060018154018082558091505060019003906000526020600020906005020160009091909190915060008201518160000190816103909190610f3f565b5060208201518160010160006101000a81548173ffffffffffffffffffffffffffffffffffffffff021916908373ffffffffffffffffffffffffffffffffffffffff16021790555060408201518160020155606082015181600301556080820151816004015550505050505050565b60008054905090565b600160009054906101000a900473ffffffffffffffffffffffffffffffffffffffff1681565b60606002805480602002602001604051908101604052809291908181526020016000905b8282101561058a57838290600052602060002090600502016040518060a001604052908160008201805461048590610d62565b80601f01602080910402602001604051908101604052809291908181526020018280546104b190610d62565b80156104fe5780601f106104d3576101008083540402835291602001916104fe565b820191906000526020600020905b8154815290600101906020018083116104e157829003601f168201915b505050505081526020016001820160009054906101000a900473ffffffffffffffffffffffffffffffffffffffff1673ffffffffffffffffffffffffffffffffffffffff1673ffffffffffffffffffffffffffffffffffffffff168152602001600282015481526020016003820154815260200160048201548152505081526020019060010190610452565b50505050905090565b6040518060a0016040528060608152602001600073ffffffffffffffffffffffffffffffffffffffff1681526020016000815260200160008152602001600081525090565b6000604051905090565b600080fd5b600080fd5b6000819050919050565b6105ff816105ec565b811461060a57600080fd5b50565b60008135905061061c816105f6565b92915050565b600060208284031215610638576106376105e2565b5b60006106468482850161060d565b91505092915050565b600080fd5b600080fd5b6000601f19601f8301169050919050565b7f4e487b7100000000000000000000000000000000000000000000000000000000600052604160045260246000fd5b6106a282610659565b810181811067ffffffffffffffff821117156106c1576106c061066a565b5b80604052505050565b60006106d46105d8565b90506106e08282610699565b919050565b600067ffffffffffffffff821115610700576106ff61066a565b5b61070982610659565b9050602081019050919050565b82818337600083830152505050565b6000610738610733846106e5565b6106ca565b90508281526020810184848401111561075457610753610654565b5b61075f848285610716565b509392505050565b600082601f83011261077c5761077b61064f565b5b813561078c848260208601610725565b91505092915050565b6000806000606084860312156107ae576107ad6105e2565b5b600084013567ffffffffffffffff8111156107cc576107cb6105e7565b5b6107d886828701610767565b93505060206107e98682870161060d565b92505060406107fa8682870161060d565b9150509250925092565b61080d816105ec565b82525050565b60006020820190506108286000830184610804565b92915050565b600073ffffffffffffffffffffffffffffffffffffffff82169050919050565b60006108598261082e565b9050919050565b6108698161084e565b82525050565b60006020820190506108846000830184610860565b92915050565b600081519050919050565b600082825260208201905092915050565b6000819050602082019050919050565b600081519050919050565b600082825260208201905092915050565b60005b838110156108f05780820151818401526020810190506108d5565b60008484015250505050565b6000610907826108b6565b61091181856108c1565b93506109218185602086016108d2565b61092a81610659565b840191505092915050565b60006109408261082e565b9050919050565b61095081610935565b82525050565b61095f816105ec565b82525050565b600060a083016000830151848203600086015261098282826108fc565b91505060208301516109976020860182610947565b5060408301516109aa6040860182610956565b5060608301516109bd6060860182610956565b5060808301516109d06080860182610956565b508091505092915050565b60006109e78383610965565b905092915050565b6000602082019050919050565b6000610a078261088a565b610a118185610895565b935083602082028501610a23856108a6565b8060005b85811015610a5f5784840389528151610a4085826109db565b9450610a4b836109ef565b925060208a01995050600181019050610a27565b50829750879550505050505092915050565b60006020820190508181036000830152610a8b81846109fc565b905092915050565b600082825260208201905092915050565b7f4f6e6c7920746865206f776e65722063616e2073657420746865207261746500600082015250565b6000610ada601f83610a93565b9150610ae582610aa4565b602082019050919050565b60006020820190508181036000830152610b0981610acd565b9050919050565b7f4e487b7100000000000000000000000000000000000000000000000000000000600052601160045260246000fd5b6000610b4a826105ec565b9150610b55836105ec565b9250828203905081811115610b6d57610b6c610b10565b5b92915050565b7f4e487b7100000000000000000000000000000000000000000000000000000000600052601260045260246000fd5b6000610bad826105ec565b9150610bb8836105ec565b925082610bc857610bc7610b73565b5b828204905092915050565b6000610bde826105ec565b9150610be9836105ec565b9250828202610bf7816105ec565b91508282048414831517610c0e57610c0d610b10565b5b5092915050565b7f5765206e656564206d6f72652065746865720000000000000000000000000000600082015250565b6000610c4b601283610a93565b9150610c5682610c15565b602082019050919050565b60006020820190508181036000830152610c7a81610c3e565b9050919050565b600081905092915050565b50565b6000610c9c600083610c81565b9150610ca782610c8c565b600082019050919050565b6000610cbd82610c8f565b9150819050919050565b7f4661696c657320746f2073656e64206574686572000000000000000000000000600082015250565b6000610cfd601483610a93565b9150610d0882610cc7565b602082019050919050565b60006020820190508181036000830152610d2c81610cf0565b9050919050565b7f4e487b7100000000000000000000000000000000000000000000000000000000600052602260045260246000fd5b60006002820490506001821680610d7a57607f821691505b602082108103610d8d57610d8c610d33565b5b50919050565b60008190508160005260206000209050919050565b60006020601f8301049050919050565b600082821b905092915050565b600060088302610df57fffffffffffffffffffffffffffffffffffffffffffffffffffffffffffffffff82610db8565b610dff8683610db8565b95508019841693508086168417925050509392505050565b6000819050919050565b6000610e3c610e37610e32846105ec565b610e17565b6105ec565b9050919050565b6000819050919050565b610e5683610e21565b610e6a610e6282610e43565b848454610dc5565b825550505050565b600090565b610e7f610e72565b610e8a818484610e4d565b505050565b5b81811015610eae57610ea3600082610e77565b600181019050610e90565b5050565b601f821115610ef357610ec481610d93565b610ecd84610da8565b81016020851015610edc578190505b610ef0610ee885610da8565b830182610e8f565b50505b505050565b600082821c905092915050565b6000610f1660001984600802610ef8565b1980831691505092915050565b6000610f2f8383610f05565b9150826002028217905092915050565b610f48826108b6565b67ffffffffffffffff811115610f6157610f6061066a565b5b610f6b8254610d62565b610f76828285610eb2565b600060209050601f831160018114610fa95760008415610f97578287015190505b610fa18582610f23565b865550611009565b601f198416610fb786610d93565b60005b82811015610fdf57848901518255600182019150602085019450602081019050610fba565b86831015610ffc5784890151610ff8601f891682610f05565b8355505b6001600288020188555050505b50505050505056fea26469706673582212203ed414ce433ea3f48d77066cdbcc67422e071dd98cd81d4cc938dd4bd3e0b96c64736f6c63430008130033",
  "immutableReferences": {},
  "source": "\r\n\r\n/*pragma solidity ^0.8.0;\r\n\r\ncontract MedicalRecord {\r\n    struct PatientRecord {\r\n        string name;\r\n        string diagnosis;\r\n        string treatment;\r\n        uint256 date;\r\n    }\r\n\r\n    address public owner;\r\n    mapping(address => bool) public authorized;\r\n\r\n    mapping(uint256 => PatientRecord) public records;\r\n    uint256 public recordCount;\r\n\r\n    constructor() {\r\n        owner = msg.sender;\r\n    }\r\n\r\n    modifier onlyOwner() {\r\n        require(msg.sender == owner, \"Only owner can call this function.\");\r\n        _;\r\n    }\r\n\r\n    modifier onlyAuthorized() {\r\n        require(authorized[msg.sender], \"Only authorized users can call this function.\");\r\n        _;\r\n    }\r\n\r\n    function addAuthorized(address user) public onlyOwner {\r\n        authorized[user] = true;\r\n    }\r\n\r\n    function removeAuthorized(address user) public onlyOwner {\r\n        authorized[user] = false;\r\n    }\r\n\r\n    function createRecord(string memory name, string memory diagnosis, string memory treatment) public onlyAuthorized {\r\n        uint256 id = ++recordCount;\r\n        records[id] = PatientRecord(name, diagnosis, treatment, block.timestamp);\r\n    }\r\n\r\n    function updateRecord(uint256 id, string memory name, string memory diagnosis, string memory treatment) public onlyAuthorized {\r\n        PatientRecord storage record = records[id];\r\n        record.name = name;\r\n        record.diagnosis = diagnosis;\r\n        record.treatment = treatment;\r\n    }\r\n\r\n    function getRecord(uint256 id) public view onlyAuthorized returns (string memory, string memory, string memory, uint256) {\r\n        PatientRecord storage record = records[id];\r\n        return (record.name, record.diagnosis, record.treatment, record.date);\r\n    }\r\n\r\n    function deleteRecord(uint256 id) public onlyAuthorized {\r\n        delete records[id];\r\n    }\r\n}\r\n*/\r\n/*\r\npragma solidity ^0.8.0;\r\n\r\ncontract DoctorAppointment {\r\n    struct Appointment {\r\n        uint256 appointmentTime; // Timestamp of the appointment\r\n        address payable patient; // Address of the patient who booked the appointment\r\n        bool booked; // Indicates whether the appointment is booked or not\r\n        bool paid; // Indicates whether the appointment fee has been paid or not\r\n    }\r\n\r\n    address public doctor; // Address of the doctor\r\n    uint256 public appointmentDuration; // Duration of each appointment\r\n    uint256 public appointmentFee; // Fee for each appointment\r\n    uint256 public maxAppointmentsPerDay; // Maximum number of appointments per day\r\n    mapping(uint256 => Appointment[]) public appointments; // Map of appointments for each day\r\n\r\n    constructor(address _doctor, uint256 _appointmentDuration, uint256 _appointmentFee, uint256 _maxAppointmentsPerDay) {\r\n        doctor = _doctor;\r\n        appointmentDuration = _appointmentDuration;\r\n        appointmentFee = _appointmentFee;\r\n        maxAppointmentsPerDay = _maxAppointmentsPerDay;\r\n    }\r\n\r\n    function bookAppointment(uint256 _day, uint256 _appointmentTime) external payable {\r\n        require(msg.sender != doctor, \"Doctor cannot book appointment\");\r\n        require(appointments[_day].length < maxAppointmentsPerDay, \"No available appointments on this day\");\r\n        require(_appointmentTime % appointmentDuration == 0, \"Appointment time must be a multiple of appointment duration\");\r\n        require(msg.value == appointmentFee, \"Incorrect appointment fee\");\r\n\r\n        uint256 appointmentSlot = _appointmentTime / appointmentDuration;\r\n        require(!appointments[_day][appointmentSlot].booked, \"Appointment already booked\");\r\n\r\n        appointments[_day][appointmentSlot] = Appointment({\r\n            appointmentTime: _appointmentTime,\r\n            patient: payable(msg.sender),\r\n            booked: true,\r\n            paid: true\r\n        });\r\n    }\r\n\r\n    function cancelAppointment(uint256 _day, uint256 _appointmentTime) external {\r\n        uint256 appointmentSlot = _appointmentTime / appointmentDuration;\r\n        Appointment storage appointment = appointments[_day][appointmentSlot];\r\n        require(appointment.patient == msg.sender, \"Only patient who booked the appointment can cancel it\");\r\n        require(!appointment.paid, \"Appointment fee already paid\");\r\n        appointment.booked = false;\r\n        appointment.patient.transfer(appointmentFee);\r\n    }\r\n}\r\n*/\r\n\r\n\r\n// SPDX-License-Identifier: MIT\r\n\r\n/*\r\npragma solidity >=0.5.16 <0.9.0;\r\n\r\ncontract BookingRoom {\r\n    struct Appointment {\r\n        address guest;\r\n        uint appointmentDate;\r\n        uint checkOutDate;\r\n    //    uint roomNumber;\r\n        uint totalPrice;\r\n        bool paid;\r\n    }\r\n\r\n    Appointment[] public Appointments;\r\n\r\n    uint public constant PRICE_PER_NIGHT = 1 ether;\r\n\r\n    event AppointmentCreated(address guest, uint appointmentDate, uint checkOutDate, uint totalPrice);\r\n    event AppointmentPaid(uint AppointmentId);\r\n\r\n    function createAppointment(uint appointmentDate, uint checkOutDate) public payable {\r\n        require(msg.value == (checkOutDate - appointmentDate) * PRICE_PER_NIGHT, \"Invalid payment amount.\");\r\n     //   require(roomNumber >= 1 && roomNumber <= 10, \"Invalid room number.\");\r\n        require(appointmentDate >= block.timestamp, \"Check-in date must be in the future.\");\r\n        require(checkOutDate > appointmentDate, \"Check-out date must be after check-in date.\");\r\n\r\n        Appointment memory Appointment = Appointment(msg.sender, appointmentDate, checkOutDate, msg.value, false);\r\n        Appointments.push(Appointment);\r\n        emit AppointmentCreated(msg.sender, appointmentDate, checkOutDate, msg.value);\r\n    }\r\n\r\n    function payAppointment(uint AppointmentId) public payable {\r\n        Appointment storage Appointment = Appointments[AppointmentId];\r\n        require(Appointment.guest == msg.sender, \"Only the guest who created the Appointment can pay.\");\r\n        require(Appointment.paid == false, \"Appointment has already been paid.\");\r\n\r\n        Appointment.paid = true;\r\n        emit AppointmentPaid(AppointmentId);\r\n    }\r\n}\r\n\r\n*/\r\n\r\npragma solidity ^0.8.0;\r\n\r\ncontract Calend3 {\r\n    uint rate;\r\n    address payable public owner;\r\n\r\n    struct Appointment{\r\n        string title;\r\n        address attendee;\r\n        uint startTime;\r\n        uint endTime;\r\n        uint amountPaid;\r\n    }\r\n\r\n    Appointment[] appointments;\r\n\r\n    constructor(){\r\n        owner = payable(msg.sender);\r\n    }\r\n\r\n    function getRate() public view returns (uint){\r\n        return rate;\r\n    }\r\n    \r\n    function setRate(uint _rate) public {\r\n        require(msg.sender==owner, \"Only the owner can set the rate\");\r\n        rate = _rate;\r\n    }\r\n\r\n    function getAppointments() public view returns (Appointment[] memory) {\r\n        return appointments;\r\n    }\r\n\r\n    function createAppointment(string memory title, uint startTime, uint endTime) public payable {\r\n        Appointment memory appointment;\r\n        appointment.title = title;\r\n        appointment.startTime = startTime;\r\n        appointment.endTime = endTime;\r\n        appointment.amountPaid = ((endTime-startTime)/60)*rate;\r\n        appointment.attendee = msg.sender;\r\n\r\n        // validate the amount of eth\r\n        require(msg.value >= appointment.amountPaid, \"We need more ether\");\r\n\r\n        (bool success,) = owner.call{value: msg.value}(\"\"); //send eth to the owner\r\n        require(success, \"Failes to send ether\");\r\n        appointments.push(appointment);\r\n    }\r\n}\r\n",
  "sourcePath": "C:\\Users\\DELL\\Desktop\\truffleproj\\healthdapp\\trialhealth\\contracts\\MedicalRecord.sol",
  "compiler": {
    "name": "solc",
    "version": "0.8.19+commit.7dd6d404.Emscripten.clang"
  },
  "schemaVersion": "3.4.13",
  "updatedAt": "2023-04-06T15:03:19.074Z",
  "devdoc": {
    "kind": "dev",
    "methods": {},
    "version": 1
  },
  "userdoc": {
    "kind": "user",
    "methods": {},
    "version": 1
  }
}