{
  "contractName": "Consultation",
  "abi": [
    {
      "inputs": [
        {
          "internalType": "uint256",
          "name": "_consultationFee",
          "type": "uint256"
        }
      ],
      "stateMutability": "nonpayable",
      "type": "constructor"
    },
    {
      "anonymous": false,
      "inputs": [
        {
          "indexed": true,
          "internalType": "address",
          "name": "consultant",
          "type": "address"
        },
        {
          "indexed": true,
          "internalType": "address",
          "name": "client",
          "type": "address"
        }
      ],
      "name": "ConsultationEnded",
      "type": "event"
    },
    {
      "anonymous": false,
      "inputs": [
        {
          "indexed": true,
          "internalType": "address",
          "name": "consultant",
          "type": "address"
        },
        {
          "indexed": true,
          "internalType": "address",
          "name": "client",
          "type": "address"
        }
      ],
      "name": "ConsultationStarted",
      "type": "event"
    },
    {
      "anonymous": false,
      "inputs": [
        {
          "indexed": true,
          "internalType": "address",
          "name": "from",
          "type": "address"
        },
        {
          "indexed": false,
          "internalType": "uint256",
          "name": "amount",
          "type": "uint256"
        }
      ],
      "name": "PaymentReceived",
      "type": "event"
    },
    {
      "inputs": [
        {
          "internalType": "address",
          "name": "",
          "type": "address"
        }
      ],
      "name": "balances",
      "outputs": [
        {
          "internalType": "uint256",
          "name": "",
          "type": "uint256"
        }
      ],
      "stateMutability": "view",
      "type": "function"
    },
    {
      "inputs": [],
      "name": "consultant",
      "outputs": [
        {
          "internalType": "address payable",
          "name": "",
          "type": "address"
        }
      ],
      "stateMutability": "view",
      "type": "function"
    },
    {
      "inputs": [],
      "name": "consultationFee",
      "outputs": [
        {
          "internalType": "uint256",
          "name": "",
          "type": "uint256"
        }
      ],
      "stateMutability": "view",
      "type": "function"
    },
    {
      "stateMutability": "payable",
      "type": "receive"
    },
    {
      "inputs": [],
      "name": "startConsultation",
      "outputs": [],
      "stateMutability": "payable",
      "type": "function"
    },
    {
      "inputs": [],
      "name": "endConsultation",
      "outputs": [],
      "stateMutability": "nonpayable",
      "type": "function"
    },
    {
      "inputs": [],
      "name": "withdraw",
      "outputs": [],
      "stateMutability": "nonpayable",
      "type": "function"
    }
  ],
  "bytecode": "0x608060405234801561001057600080fd5b506040516109bc3803806109bc833981810160405281019061003291906100ba565b336000806101000a81548173ffffffffffffffffffffffffffffffffffffffff021916908373ffffffffffffffffffffffffffffffffffffffff16021790555080600181905550506100e7565b600080fd5b6000819050919050565b61009781610084565b81146100a257600080fd5b50565b6000815190506100b48161008e565b92915050565b6000602082840312156100d0576100cf61007f565b5b60006100de848285016100a5565b91505092915050565b6108c6806100f66000396000f3fe6080604052600436106100595760003560e01c806327e235e3146101095780633ccfd60b1461014657806372ba941c1461015d578063bd46811814610174578063e167585e1461019f578063f237c14f146101a957610104565b366101045734600260003373ffffffffffffffffffffffffffffffffffffffff1673ffffffffffffffffffffffffffffffffffffffff16815260200190815260200160002060008282546100ad91906105eb565b925050819055503373ffffffffffffffffffffffffffffffffffffffff167f6ef95f06320e7a25a04a175ca677b7052bdd97131872c2192525a629f51be770346040516100fa919061062e565b60405180910390a2005b600080fd5b34801561011557600080fd5b50610130600480360381019061012b91906106ac565b6101d4565b60405161013d919061062e565b60405180910390f35b34801561015257600080fd5b5061015b6101ec565b005b34801561016957600080fd5b50610172610302565b005b34801561018057600080fd5b50610189610479565b60405161019691906106fa565b60405180910390f35b6101a761049d565b005b3480156101b557600080fd5b506101be6105ac565b6040516101cb919061062e565b60405180910390f35b60026020528060005260406000206000915090505481565b6000600260003373ffffffffffffffffffffffffffffffffffffffff1673ffffffffffffffffffffffffffffffffffffffff16815260200190815260200160002054905060008111610273576040517f08c379a000000000000000000000000000000000000000000000000000000000815260040161026a90610772565b60405180910390fd5b6000600260003373ffffffffffffffffffffffffffffffffffffffff1673ffffffffffffffffffffffffffffffffffffffff168152602001908152602001600020819055503373ffffffffffffffffffffffffffffffffffffffff166108fc829081150290604051600060405180830381858888f193505050501580156102fe573d6000803e3d6000fd5b5050565b60008054906101000a900473ffffffffffffffffffffffffffffffffffffffff1673ffffffffffffffffffffffffffffffffffffffff163373ffffffffffffffffffffffffffffffffffffffff1614610390576040517f08c379a000000000000000000000000000000000000000000000000000000000815260040161038790610804565b60405180910390fd5b600047905060008054906101000a900473ffffffffffffffffffffffffffffffffffffffff1673ffffffffffffffffffffffffffffffffffffffff166108fc829081150290604051600060405180830381858888f193505050501580156103fb573d6000803e3d6000fd5b503373ffffffffffffffffffffffffffffffffffffffff1660008054906101000a900473ffffffffffffffffffffffffffffffffffffffff1673ffffffffffffffffffffffffffffffffffffffff167f8654412d824303d34e25451faa708b81ef92e54e6498d39adcd38797a2182c8f60405160405180910390a350565b60008054906101000a900473ffffffffffffffffffffffffffffffffffffffff1681565b6001543410156104e2576040517f08c379a00000000000000000000000000000000000000000000000000000000081526004016104d990610870565b60405180910390fd5b3373ffffffffffffffffffffffffffffffffffffffff167f6ef95f06320e7a25a04a175ca677b7052bdd97131872c2192525a629f51be77034604051610528919061062e565b60405180910390a23373ffffffffffffffffffffffffffffffffffffffff1660008054906101000a900473ffffffffffffffffffffffffffffffffffffffff1673ffffffffffffffffffffffffffffffffffffffff167f33b0cbb8377b1c80e8068bd5eac37e908fd6e6bb1bc7613015d8e7a2b808d80760405160405180910390a3565b60015481565b6000819050919050565b7f4e487b7100000000000000000000000000000000000000000000000000000000600052601160045260246000fd5b60006105f6826105b2565b9150610601836105b2565b9250828201905080821115610619576106186105bc565b5b92915050565b610628816105b2565b82525050565b6000602082019050610643600083018461061f565b92915050565b600080fd5b600073ffffffffffffffffffffffffffffffffffffffff82169050919050565b60006106798261064e565b9050919050565b6106898161066e565b811461069457600080fd5b50565b6000813590506106a681610680565b92915050565b6000602082840312156106c2576106c1610649565b5b60006106d084828501610697565b91505092915050565b60006106e48261064e565b9050919050565b6106f4816106d9565b82525050565b600060208201905061070f60008301846106eb565b92915050565b600082825260208201905092915050565b7f496e73756666696369656e742062616c616e63652e0000000000000000000000600082015250565b600061075c601583610715565b915061076782610726565b602082019050919050565b6000602082019050818103600083015261078b8161074f565b9050919050565b7f4f6e6c792074686520636f6e73756c74616e742063616e20656e64207468652060008201527f636f6e73756c746174696f6e2e00000000000000000000000000000000000000602082015250565b60006107ee602d83610715565b91506107f982610792565b604082019050919050565b6000602082019050818103600083015261081d816107e1565b9050919050565b7f496e73756666696369656e74207061796d656e742e0000000000000000000000600082015250565b600061085a601583610715565b915061086582610824565b602082019050919050565b600060208201905081810360008301526108898161084d565b905091905056fea26469706673582212206c5c5a017b79d59497cdf7e3bcb8b9f770c68d3a0ee9891721b23c77848c777864736f6c63430008130033",
  "immutableReferences": {},
  "source": "\r\n\r\n/*pragma solidity ^0.8.0;\r\n\r\ncontract MedicalRecord {\r\n    struct PatientRecord {\r\n        string name;\r\n        string diagnosis;\r\n        string treatment;\r\n        uint256 date;\r\n    }\r\n\r\n    address public owner;\r\n    mapping(address => bool) public authorized;\r\n\r\n    mapping(uint256 => PatientRecord) public records;\r\n    uint256 public recordCount;\r\n\r\n    constructor() {\r\n        owner = msg.sender;\r\n    }\r\n\r\n    modifier onlyOwner() {\r\n        require(msg.sender == owner, \"Only owner can call this function.\");\r\n        _;\r\n    }\r\n\r\n    modifier onlyAuthorized() {\r\n        require(authorized[msg.sender], \"Only authorized users can call this function.\");\r\n        _;\r\n    }\r\n\r\n    function addAuthorized(address user) public onlyOwner {\r\n        authorized[user] = true;\r\n    }\r\n\r\n    function removeAuthorized(address user) public onlyOwner {\r\n        authorized[user] = false;\r\n    }\r\n\r\n    function createRecord(string memory name, string memory diagnosis, string memory treatment) public onlyAuthorized {\r\n        uint256 id = ++recordCount;\r\n        records[id] = PatientRecord(name, diagnosis, treatment, block.timestamp);\r\n    }\r\n\r\n    function updateRecord(uint256 id, string memory name, string memory diagnosis, string memory treatment) public onlyAuthorized {\r\n        PatientRecord storage record = records[id];\r\n        record.name = name;\r\n        record.diagnosis = diagnosis;\r\n        record.treatment = treatment;\r\n    }\r\n\r\n    function getRecord(uint256 id) public view onlyAuthorized returns (string memory, string memory, string memory, uint256) {\r\n        PatientRecord storage record = records[id];\r\n        return (record.name, record.diagnosis, record.treatment, record.date);\r\n    }\r\n\r\n    function deleteRecord(uint256 id) public onlyAuthorized {\r\n        delete records[id];\r\n    }\r\n}\r\n*/\r\n/*\r\npragma solidity ^0.8.0;\r\n\r\ncontract DoctorAppointment {\r\n    struct Appointment {\r\n        uint256 appointmentTime; // Timestamp of the appointment\r\n        address payable patient; // Address of the patient who booked the appointment\r\n        bool booked; // Indicates whether the appointment is booked or not\r\n        bool paid; // Indicates whether the appointment fee has been paid or not\r\n    }\r\n\r\n    address public doctor; // Address of the doctor\r\n    uint256 public appointmentDuration; // Duration of each appointment\r\n    uint256 public appointmentFee; // Fee for each appointment\r\n    uint256 public maxAppointmentsPerDay; // Maximum number of appointments per day\r\n    mapping(uint256 => Appointment[]) public appointments; // Map of appointments for each day\r\n\r\n    constructor(address _doctor, uint256 _appointmentDuration, uint256 _appointmentFee, uint256 _maxAppointmentsPerDay) {\r\n        doctor = _doctor;\r\n        appointmentDuration = _appointmentDuration;\r\n        appointmentFee = _appointmentFee;\r\n        maxAppointmentsPerDay = _maxAppointmentsPerDay;\r\n    }\r\n\r\n    function bookAppointment(uint256 _day, uint256 _appointmentTime) external payable {\r\n        require(msg.sender != doctor, \"Doctor cannot book appointment\");\r\n        require(appointments[_day].length < maxAppointmentsPerDay, \"No available appointments on this day\");\r\n        require(_appointmentTime % appointmentDuration == 0, \"Appointment time must be a multiple of appointment duration\");\r\n        require(msg.value == appointmentFee, \"Incorrect appointment fee\");\r\n\r\n        uint256 appointmentSlot = _appointmentTime / appointmentDuration;\r\n        require(!appointments[_day][appointmentSlot].booked, \"Appointment already booked\");\r\n\r\n        appointments[_day][appointmentSlot] = Appointment({\r\n            appointmentTime: _appointmentTime,\r\n            patient: payable(msg.sender),\r\n            booked: true,\r\n            paid: true\r\n        });\r\n    }\r\n\r\n    function cancelAppointment(uint256 _day, uint256 _appointmentTime) external {\r\n        uint256 appointmentSlot = _appointmentTime / appointmentDuration;\r\n        Appointment storage appointment = appointments[_day][appointmentSlot];\r\n        require(appointment.patient == msg.sender, \"Only patient who booked the appointment can cancel it\");\r\n        require(!appointment.paid, \"Appointment fee already paid\");\r\n        appointment.booked = false;\r\n        appointment.patient.transfer(appointmentFee);\r\n    }\r\n}\r\n*/\r\n\r\n\r\n// SPDX-License-Identifier: MIT\r\n\r\n/*\r\npragma solidity >=0.5.16 <0.9.0;\r\n\r\ncontract BookingRoom {\r\n    struct Appointment {\r\n        address guest;\r\n        uint appointmentDate;\r\n        uint checkOutDate;\r\n    //    uint roomNumber;\r\n        uint totalPrice;\r\n        bool paid;\r\n    }\r\n\r\n    Appointment[] public Appointments;\r\n\r\n    uint public constant PRICE_PER_NIGHT = 1 ether;\r\n\r\n    event AppointmentCreated(address guest, uint appointmentDate, uint checkOutDate, uint totalPrice);\r\n    event AppointmentPaid(uint AppointmentId);\r\n\r\n    function createAppointment(uint appointmentDate, uint checkOutDate) public payable {\r\n        require(msg.value == (checkOutDate - appointmentDate) * PRICE_PER_NIGHT, \"Invalid payment amount.\");\r\n     //   require(roomNumber >= 1 && roomNumber <= 10, \"Invalid room number.\");\r\n        require(appointmentDate >= block.timestamp, \"Check-in date must be in the future.\");\r\n        require(checkOutDate > appointmentDate, \"Check-out date must be after check-in date.\");\r\n\r\n        Appointment memory Appointment = Appointment(msg.sender, appointmentDate, checkOutDate, msg.value, false);\r\n        Appointments.push(Appointment);\r\n        emit AppointmentCreated(msg.sender, appointmentDate, checkOutDate, msg.value);\r\n    }\r\n\r\n    function payAppointment(uint AppointmentId) public payable {\r\n        Appointment storage Appointment = Appointments[AppointmentId];\r\n        require(Appointment.guest == msg.sender, \"Only the guest who created the Appointment can pay.\");\r\n        require(Appointment.paid == false, \"Appointment has already been paid.\");\r\n\r\n        Appointment.paid = true;\r\n        emit AppointmentPaid(AppointmentId);\r\n    }\r\n}\r\n\r\n*/\r\n\r\npragma solidity ^0.8.0;\r\n\r\ncontract Consultation {\r\n    address payable public consultant;\r\n    uint public consultationFee;\r\n    mapping(address => uint) public balances;\r\n    \r\n    event PaymentReceived(address indexed from, uint amount);\r\n    event ConsultationStarted(address indexed consultant, address indexed client);\r\n    event ConsultationEnded(address indexed consultant, address indexed client);\r\n\r\n    constructor(uint _consultationFee) {\r\n        consultant = payable(msg.sender);\r\n        consultationFee = _consultationFee;\r\n    }\r\n    \r\n    function startConsultation() public payable {\r\n        require(msg.value >= consultationFee, \"Insufficient payment.\");\r\n        emit PaymentReceived(msg.sender, msg.value);\r\n        emit ConsultationStarted(consultant, msg.sender);\r\n    }\r\n    \r\n    function endConsultation() public {\r\n        require(msg.sender == consultant, \"Only the consultant can end the consultation.\");\r\n        uint payoutAmount = address(this).balance;\r\n        consultant.transfer(payoutAmount);\r\n        emit ConsultationEnded(consultant, msg.sender);\r\n    }\r\n    \r\n    function withdraw() public {\r\n        uint amount = balances[msg.sender];\r\n        require(amount > 0, \"Insufficient balance.\");\r\n        balances[msg.sender] = 0;\r\n        payable(msg.sender).transfer(amount);\r\n    }\r\n    \r\n    receive() external payable {\r\n        balances[msg.sender] += msg.value;\r\n        emit PaymentReceived(msg.sender, msg.value);\r\n    }\r\n}\r\n",
  "sourcePath": "C:\\Users\\DELL\\Desktop\\truffleproj\\healthdapp\\trialhealth\\contracts\\MedicalRecord.sol",
  "compiler": {
    "name": "solc",
    "version": "0.8.19+commit.7dd6d404.Emscripten.clang"
  },
  "schemaVersion": "3.4.13",
  "updatedAt": "2023-04-06T15:10:24.638Z",
  "devdoc": {
    "kind": "dev",
    "methods": {},
    "version": 1
  },
  "userdoc": {
    "kind": "user",
    "methods": {},
    "version": 1
  }
}