{
  "contractName": "DoctorAppointment",
  "abi": [
    {
      "anonymous": false,
      "inputs": [
        {
          "indexed": false,
          "internalType": "uint256",
          "name": "day",
          "type": "uint256"
        },
        {
          "indexed": false,
          "internalType": "uint256",
          "name": "timeSlot",
          "type": "uint256"
        },
        {
          "indexed": false,
          "internalType": "address",
          "name": "patient",
          "type": "address"
        }
      ],
      "name": "AppointmentBooked",
      "type": "event"
    },
    {
      "anonymous": false,
      "inputs": [
        {
          "indexed": false,
          "internalType": "uint256",
          "name": "day",
          "type": "uint256"
        },
        {
          "indexed": false,
          "internalType": "uint256",
          "name": "timeSlot",
          "type": "uint256"
        },
        {
          "indexed": false,
          "internalType": "address",
          "name": "patient",
          "type": "address"
        }
      ],
      "name": "AppointmentCanceled",
      "type": "event"
    },
    {
      "anonymous": false,
      "inputs": [
        {
          "indexed": false,
          "internalType": "uint256",
          "name": "day",
          "type": "uint256"
        },
        {
          "indexed": false,
          "internalType": "uint256",
          "name": "timeSlot",
          "type": "uint256"
        },
        {
          "indexed": false,
          "internalType": "address",
          "name": "patient",
          "type": "address"
        }
      ],
      "name": "AppointmentPaid",
      "type": "event"
    },
    {
      "inputs": [],
      "name": "appointmentDuration",
      "outputs": [
        {
          "internalType": "uint256",
          "name": "",
          "type": "uint256"
        }
      ],
      "stateMutability": "view",
      "type": "function"
    },
    {
      "inputs": [],
      "name": "appointmentFee",
      "outputs": [
        {
          "internalType": "uint256",
          "name": "",
          "type": "uint256"
        }
      ],
      "stateMutability": "view",
      "type": "function"
    },
    {
      "inputs": [
        {
          "internalType": "uint256",
          "name": "",
          "type": "uint256"
        },
        {
          "internalType": "uint256",
          "name": "",
          "type": "uint256"
        }
      ],
      "name": "appointments",
      "outputs": [
        {
          "internalType": "bool",
          "name": "booked",
          "type": "bool"
        },
        {
          "internalType": "address",
          "name": "patient",
          "type": "address"
        },
        {
          "internalType": "bool",
          "name": "paid",
          "type": "bool"
        }
      ],
      "stateMutability": "view",
      "type": "function"
    },
    {
      "inputs": [],
      "name": "maxAppointmentsPerDay",
      "outputs": [
        {
          "internalType": "uint256",
          "name": "",
          "type": "uint256"
        }
      ],
      "stateMutability": "view",
      "type": "function"
    },
    {
      "inputs": [
        {
          "internalType": "uint256",
          "name": "day",
          "type": "uint256"
        },
        {
          "internalType": "uint256",
          "name": "timeSlot",
          "type": "uint256"
        }
      ],
      "name": "bookAppointment",
      "outputs": [],
      "stateMutability": "payable",
      "type": "function"
    },
    {
      "inputs": [
        {
          "internalType": "uint256",
          "name": "day",
          "type": "uint256"
        },
        {
          "internalType": "uint256",
          "name": "timeSlot",
          "type": "uint256"
        }
      ],
      "name": "cancelAppointment",
      "outputs": [],
      "stateMutability": "nonpayable",
      "type": "function"
    },
    {
      "inputs": [
        {
          "internalType": "uint256",
          "name": "day",
          "type": "uint256"
        },
        {
          "internalType": "uint256",
          "name": "timeSlot",
          "type": "uint256"
        }
      ],
      "name": "payAppointmentFee",
      "outputs": [],
      "stateMutability": "payable",
      "type": "function"
    }
  ],
  "bytecode": "0x6080604052610708600055600560015567016345785d8a000060025534801561002757600080fd5b50610d6b806100376000396000f3fe6080604052600436106100705760003560e01c80638a5fdfa71161004e5780638a5fdfa7146100d8578063cd9b33ee14610103578063dabf826a14610142578063db72df591461016d57610070565b806369ccec5e1461007557806379d30029146100915780637a559d9f146100ad575b600080fd5b61008f600480360381019061008a9190610896565b610196565b005b6100ab60048036038101906100a69190610896565b610389565b005b3480156100b957600080fd5b506100c26105c2565b6040516100cf91906108e5565b60405180910390f35b3480156100e457600080fd5b506100ed6105c8565b6040516100fa91906108e5565b60405180910390f35b34801561010f57600080fd5b5061012a60048036038101906101259190610896565b6105ce565b6040516101399392919061095c565b60405180910390f35b34801561014e57600080fd5b5061015761063f565b60405161016491906108e5565b60405180910390f35b34801561017957600080fd5b50610194600480360381019061018f9190610896565b610645565b005b3373ffffffffffffffffffffffffffffffffffffffff1660036000848152602001908152602001600020600083815260200190815260200160002060000160019054906101000a900473ffffffffffffffffffffffffffffffffffffffff1673ffffffffffffffffffffffffffffffffffffffff161461024b576040517f08c379a000000000000000000000000000000000000000000000000000000000815260040161024290610a16565b60405180910390fd5b6000151560036000848152602001908152602001600020600083815260200190815260200160002060000160159054906101000a900460ff161515146102c6576040517f08c379a00000000000000000000000000000000000000000000000000000000081526004016102bd90610a82565b60405180910390fd5b600254341461030a576040517f08c379a000000000000000000000000000000000000000000000000000000000815260040161030190610aee565b60405180910390fd5b600160036000848152602001908152602001600020600083815260200190815260200160002060000160156101000a81548160ff0219169083151502179055507fbee889a1df1b3722e8a9bf654144c194476065c05e474fc855156bd4925f6ae682823360405161037d93929190610b0e565b60405180910390a15050565b428210156103cc576040517f08c379a00000000000000000000000000000000000000000000000000000000081526004016103c390610bb7565b60405180910390fd5b6002543414610410576040517f08c379a000000000000000000000000000000000000000000000000000000000815260040161040790610aee565b60405180910390fd5b6000151560036000848152602001908152602001600020600083815260200190815260200160002060000160009054906101000a900460ff1615151461048b576040517f08c379a000000000000000000000000000000000000000000000000000000000815260040161048290610c49565b60405180910390fd5b6000546201518061049c9190610c98565b81106104dd576040517f08c379a00000000000000000000000000000000000000000000000000000000081526004016104d490610d15565b60405180910390fd5b600160036000848152602001908152602001600020600083815260200190815260200160002060000160006101000a81548160ff0219169083151502179055503360036000848152602001908152602001600020600083815260200190815260200160002060000160016101000a81548173ffffffffffffffffffffffffffffffffffffffff021916908373ffffffffffffffffffffffffffffffffffffffff1602179055507fad6d7d367eae7f6f746ff38d5965213c8e04b6657a5b04eca5cdf0d6d71003988282336040516105b693929190610b0e565b60405180910390a15050565b60005481565b60015481565b6003602052816000526040600020602052806000526040600020600091509150508060000160009054906101000a900460ff16908060000160019054906101000a900473ffffffffffffffffffffffffffffffffffffffff16908060000160159054906101000a900460ff16905083565b60025481565b3373ffffffffffffffffffffffffffffffffffffffff1660036000848152602001908152602001600020600083815260200190815260200160002060000160019054906101000a900473ffffffffffffffffffffffffffffffffffffffff1673ffffffffffffffffffffffffffffffffffffffff16146106fa576040517f08c379a00000000000000000000000000000000000000000000000000000000081526004016106f190610a16565b60405180910390fd5b6000151560036000848152602001908152602001600020600083815260200190815260200160002060000160159054906101000a900460ff16151514610775576040517f08c379a000000000000000000000000000000000000000000000000000000000815260040161076c90610a82565b60405180910390fd5b600060036000848152602001908152602001600020600083815260200190815260200160002060000160006101000a81548160ff021916908315150217905550600060036000848152602001908152602001600020600083815260200190815260200160002060000160016101000a81548173ffffffffffffffffffffffffffffffffffffffff021916908373ffffffffffffffffffffffffffffffffffffffff1602179055507f481bdb6f42287804077b613645465e00b793ef23f6f7096ad95a32a1b358ef7082823360405161084f93929190610b0e565b60405180910390a15050565b600080fd5b6000819050919050565b61087381610860565b811461087e57600080fd5b50565b6000813590506108908161086a565b92915050565b600080604083850312156108ad576108ac61085b565b5b60006108bb85828601610881565b92505060206108cc85828601610881565b9150509250929050565b6108df81610860565b82525050565b60006020820190506108fa60008301846108d6565b92915050565b60008115159050919050565b61091581610900565b82525050565b600073ffffffffffffffffffffffffffffffffffffffff82169050919050565b60006109468261091b565b9050919050565b6109568161093b565b82525050565b6000606082019050610971600083018661090c565b61097e602083018561094d565b61098b604083018461090c565b949350505050565b600082825260208201905092915050565b7f596f7520646964206e6f7420626f6f6b2074686973206170706f696e746d656e60008201527f7400000000000000000000000000000000000000000000000000000000000000602082015250565b6000610a00602183610993565b9150610a0b826109a4565b604082019050919050565b60006020820190508181036000830152610a2f816109f3565b9050919050565b7f4170706f696e746d656e742066656520616c7265616479207061696400000000600082015250565b6000610a6c601c83610993565b9150610a7782610a36565b602082019050919050565b60006020820190508181036000830152610a9b81610a5f565b9050919050565b7f4170706f696e746d656e74206665652069732072657175697265640000000000600082015250565b6000610ad8601b83610993565b9150610ae382610aa2565b602082019050919050565b60006020820190508181036000830152610b0781610acb565b9050919050565b6000606082019050610b2360008301866108d6565b610b3060208301856108d6565b610b3d604083018461094d565b949350505050565b7f43616e6e6f7420626f6f6b206170706f696e746d656e7420696e20746865207060008201527f6173740000000000000000000000000000000000000000000000000000000000602082015250565b6000610ba1602383610993565b9150610bac82610b45565b604082019050919050565b60006020820190508181036000830152610bd081610b94565b9050919050565b7f4170706f696e746d656e7420736c6f7420697320616c726561647920626f6f6b60008201527f6564000000000000000000000000000000000000000000000000000000000000602082015250565b6000610c33602283610993565b9150610c3e82610bd7565b604082019050919050565b60006020820190508181036000830152610c6281610c26565b9050919050565b7f4e487b7100000000000000000000000000000000000000000000000000000000600052601260045260246000fd5b6000610ca382610860565b9150610cae83610860565b925082610cbe57610cbd610c69565b5b828204905092915050565b7f496e76616c69642074696d6520736c6f74000000000000000000000000000000600082015250565b6000610cff601183610993565b9150610d0a82610cc9565b602082019050919050565b60006020820190508181036000830152610d2e81610cf2565b905091905056fea2646970667358221220e3acc4342f2bb14fe828122c70b3d0b38297e0dd2efdb5f64b714b9d148904a964736f6c63430008130033",
  "immutableReferences": {},
  "source": "//SPDX-License-Identifier: MIT\r\n\r\n/*pragma solidity ^0.8.0;\r\n\r\ncontract MedicalRecord {\r\n    struct PatientRecord {\r\n        string name;\r\n        string diagnosis;\r\n        string treatment;\r\n        uint256 date;\r\n    }\r\n\r\n    address public owner;\r\n    mapping(address => bool) public authorized;\r\n\r\n    mapping(uint256 => PatientRecord) public records;\r\n    uint256 public recordCount;\r\n\r\n    constructor() {\r\n        owner = msg.sender;\r\n    }\r\n\r\n    modifier onlyOwner() {\r\n        require(msg.sender == owner, \"Only owner can call this function.\");\r\n        _;\r\n    }\r\n\r\n    modifier onlyAuthorized() {\r\n        require(authorized[msg.sender], \"Only authorized users can call this function.\");\r\n        _;\r\n    }\r\n\r\n    function addAuthorized(address user) public onlyOwner {\r\n        authorized[user] = true;\r\n    }\r\n\r\n    function removeAuthorized(address user) public onlyOwner {\r\n        authorized[user] = false;\r\n    }\r\n\r\n    function createRecord(string memory name, string memory diagnosis, string memory treatment) public onlyAuthorized {\r\n        uint256 id = ++recordCount;\r\n        records[id] = PatientRecord(name, diagnosis, treatment, block.timestamp);\r\n    }\r\n\r\n    function updateRecord(uint256 id, string memory name, string memory diagnosis, string memory treatment) public onlyAuthorized {\r\n        PatientRecord storage record = records[id];\r\n        record.name = name;\r\n        record.diagnosis = diagnosis;\r\n        record.treatment = treatment;\r\n    }\r\n\r\n    function getRecord(uint256 id) public view onlyAuthorized returns (string memory, string memory, string memory, uint256) {\r\n        PatientRecord storage record = records[id];\r\n        return (record.name, record.diagnosis, record.treatment, record.date);\r\n    }\r\n\r\n    function deleteRecord(uint256 id) public onlyAuthorized {\r\n        delete records[id];\r\n    }\r\n}\r\n*/\r\n/*\r\npragma solidity ^0.8.0;\r\n\r\ncontract DoctorAppointment {\r\n    struct Appointment {\r\n        uint256 appointmentTime; // Timestamp of the appointment\r\n        address payable patient; // Address of the patient who booked the appointment\r\n        bool booked; // Indicates whether the appointment is booked or not\r\n        bool paid; // Indicates whether the appointment fee has been paid or not\r\n    }\r\n\r\n    address public doctor; // Address of the doctor\r\n    uint256 public appointmentDuration; // Duration of each appointment\r\n    uint256 public appointmentFee; // Fee for each appointment\r\n    uint256 public maxAppointmentsPerDay; // Maximum number of appointments per day\r\n    mapping(uint256 => Appointment[]) public appointments; // Map of appointments for each day\r\n\r\n    constructor(address _doctor, uint256 _appointmentDuration, uint256 _appointmentFee, uint256 _maxAppointmentsPerDay) {\r\n        doctor = _doctor;\r\n        appointmentDuration = _appointmentDuration;\r\n        appointmentFee = _appointmentFee;\r\n        maxAppointmentsPerDay = _maxAppointmentsPerDay;\r\n    }\r\n\r\n    function bookAppointment(uint256 _day, uint256 _appointmentTime) external payable {\r\n        require(msg.sender != doctor, \"Doctor cannot book appointment\");\r\n        require(appointments[_day].length < maxAppointmentsPerDay, \"No available appointments on this day\");\r\n        require(_appointmentTime % appointmentDuration == 0, \"Appointment time must be a multiple of appointment duration\");\r\n        require(msg.value == appointmentFee, \"Incorrect appointment fee\");\r\n\r\n        uint256 appointmentSlot = _appointmentTime / appointmentDuration;\r\n        require(!appointments[_day][appointmentSlot].booked, \"Appointment already booked\");\r\n\r\n        appointments[_day][appointmentSlot] = Appointment({\r\n            appointmentTime: _appointmentTime,\r\n            patient: payable(msg.sender),\r\n            booked: true,\r\n            paid: true\r\n        });\r\n    }\r\n\r\n    function cancelAppointment(uint256 _day, uint256 _appointmentTime) external {\r\n        uint256 appointmentSlot = _appointmentTime / appointmentDuration;\r\n        Appointment storage appointment = appointments[_day][appointmentSlot];\r\n        require(appointment.patient == msg.sender, \"Only patient who booked the appointment can cancel it\");\r\n        require(!appointment.paid, \"Appointment fee already paid\");\r\n        appointment.booked = false;\r\n        appointment.patient.transfer(appointmentFee);\r\n    }\r\n}\r\n*/\r\npragma solidity ^0.8.0;\r\n\r\ncontract DoctorAppointment {\r\n  uint public appointmentDuration = 30 minutes;\r\n  uint public maxAppointmentsPerDay = 5;\r\n  uint public appointmentFee = 0.1 ether;\r\n\r\n  struct Appointment {\r\n    bool booked;\r\n    address patient;\r\n    bool paid;\r\n  }\r\n\r\n  mapping(uint => mapping(uint => Appointment)) public appointments;\r\n\r\n  function bookAppointment(uint day, uint timeSlot) public payable {\r\n    require(day >= block.timestamp, \"Cannot book appointment in the past\");\r\n    require(msg.value == appointmentFee, \"Appointment fee is required\");\r\n    require(appointments[day][timeSlot].booked == false, \"Appointment slot is already booked\");\r\n    require(timeSlot < (24 hours / appointmentDuration), \"Invalid time slot\");\r\n\r\n    appointments[day][timeSlot].booked = true;\r\n    appointments[day][timeSlot].patient = msg.sender;\r\n\r\n    emit AppointmentBooked(day, timeSlot, msg.sender);\r\n  }\r\n\r\n  function cancelAppointment(uint day, uint timeSlot) public {\r\n    require(appointments[day][timeSlot].patient == msg.sender, \"You did not book this appointment\");\r\n    require(appointments[day][timeSlot].paid == false, \"Appointment fee already paid\");\r\n\r\n    appointments[day][timeSlot].booked = false;\r\n    appointments[day][timeSlot].patient = address(0);\r\n\r\n    emit AppointmentCanceled(day, timeSlot, msg.sender);\r\n  }\r\n\r\n  function payAppointmentFee(uint day, uint timeSlot) public payable {\r\n    require(appointments[day][timeSlot].patient == msg.sender, \"You did not book this appointment\");\r\n    require(appointments[day][timeSlot].paid == false, \"Appointment fee already paid\");\r\n    require(msg.value == appointmentFee, \"Appointment fee is required\");\r\n\r\n    appointments[day][timeSlot].paid = true;\r\n\r\n    emit AppointmentPaid(day, timeSlot, msg.sender);\r\n  }\r\n\r\n  event AppointmentBooked(uint day, uint timeSlot, address patient);\r\n  event AppointmentCanceled(uint day, uint timeSlot, address patient);\r\n  event AppointmentPaid(uint day, uint timeSlot, address patient);\r\n}\r\n",
  "sourcePath": "C:\\Users\\DELL\\Desktop\\truffleproj\\healthdapp\\trialhealth\\contracts\\MedicalRecord.sol",
  "compiler": {
    "name": "solc",
    "version": "0.8.19+commit.7dd6d404.Emscripten.clang"
  },
  "schemaVersion": "3.4.13",
  "updatedAt": "2023-04-06T14:08:26.542Z",
  "devdoc": {
    "kind": "dev",
    "methods": {},
    "version": 1
  },
  "userdoc": {
    "kind": "user",
    "methods": {},
    "version": 1
  }
}