{
  "contractName": "Insurance",
  "abi": [
    {
      "inputs": [
        {
          "internalType": "address payable",
          "name": "_insured",
          "type": "address"
        },
        {
          "internalType": "uint256",
          "name": "_premium",
          "type": "uint256"
        },
        {
          "internalType": "uint256",
          "name": "_expiration",
          "type": "uint256"
        }
      ],
      "stateMutability": "payable",
      "type": "constructor"
    },
    {
      "inputs": [],
      "name": "expiration",
      "outputs": [
        {
          "internalType": "uint256",
          "name": "",
          "type": "uint256"
        }
      ],
      "stateMutability": "view",
      "type": "function"
    },
    {
      "inputs": [],
      "name": "insured",
      "outputs": [
        {
          "internalType": "address payable",
          "name": "",
          "type": "address"
        }
      ],
      "stateMutability": "view",
      "type": "function"
    },
    {
      "inputs": [],
      "name": "insurer",
      "outputs": [
        {
          "internalType": "address payable",
          "name": "",
          "type": "address"
        }
      ],
      "stateMutability": "view",
      "type": "function"
    },
    {
      "inputs": [],
      "name": "payout",
      "outputs": [
        {
          "internalType": "uint256",
          "name": "",
          "type": "uint256"
        }
      ],
      "stateMutability": "view",
      "type": "function"
    },
    {
      "inputs": [],
      "name": "premium",
      "outputs": [
        {
          "internalType": "uint256",
          "name": "",
          "type": "uint256"
        }
      ],
      "stateMutability": "view",
      "type": "function"
    },
    {
      "inputs": [],
      "name": "purchaseInsurance",
      "outputs": [],
      "stateMutability": "payable",
      "type": "function"
    },
    {
      "inputs": [],
      "name": "claimInsurance",
      "outputs": [],
      "stateMutability": "nonpayable",
      "type": "function"
    },
    {
      "inputs": [],
      "name": "cancelInsurance",
      "outputs": [],
      "stateMutability": "nonpayable",
      "type": "function"
    }
  ],
  "bytecode": "0x6080604052604051610ba0380380610ba083398181016040528101906100259190610155565b336000806101000a81548173ffffffffffffffffffffffffffffffffffffffff021916908373ffffffffffffffffffffffffffffffffffffffff16021790555082600160006101000a81548173ffffffffffffffffffffffffffffffffffffffff021916908373ffffffffffffffffffffffffffffffffffffffff16021790555081600281905550806004819055505050506101a8565b600080fd5b600073ffffffffffffffffffffffffffffffffffffffff82169050919050565b60006100ec826100c1565b9050919050565b6100fc816100e1565b811461010757600080fd5b50565b600081519050610119816100f3565b92915050565b6000819050919050565b6101328161011f565b811461013d57600080fd5b50565b60008151905061014f81610129565b92915050565b60008060006060848603121561016e5761016d6100bc565b5b600061017c8682870161010a565b935050602061018d86828701610140565b925050604061019e86828701610140565b9150509250925092565b6109e9806101b76000396000f3fe60806040526004361061007b5760003560e01c8063dbc837c51161004e578063dbc837c514610104578063e0a73a931461012f578063edb8fb441461015a578063eebb1363146101645761007b565b80633a0132c7146100805780634665096d1461009757806363bd1d4a146100c2578063a75ac608146100ed575b600080fd5b34801561008c57600080fd5b5061009561018f565b005b3480156100a357600080fd5b506100ac610305565b6040516100b991906105e5565b60405180910390f35b3480156100ce57600080fd5b506100d761030b565b6040516100e491906105e5565b60405180910390f35b3480156100f957600080fd5b50610102610311565b005b34801561011057600080fd5b5061011961049f565b6040516101269190610641565b60405180910390f35b34801561013b57600080fd5b506101446104c3565b60405161015191906105e5565b60405180910390f35b6101626104c9565b005b34801561017057600080fd5b506101796105a6565b6040516101869190610641565b60405180910390f35b60008054906101000a900473ffffffffffffffffffffffffffffffffffffffff1673ffffffffffffffffffffffffffffffffffffffff163373ffffffffffffffffffffffffffffffffffffffff161461021d576040517f08c379a0000000000000000000000000000000000000000000000000000000008152600401610214906106df565b60405180910390fd5b6004544210610261576040517f08c379a00000000000000000000000000000000000000000000000000000000081526004016102589061074b565b60405180910390fd5b600160009054906101000a900473ffffffffffffffffffffffffffffffffffffffff1673ffffffffffffffffffffffffffffffffffffffff166108fc6002549081150290604051600060405180830381858888f193505050501580156102cb573d6000803e3d6000fd5b5060008054906101000a900473ffffffffffffffffffffffffffffffffffffffff1673ffffffffffffffffffffffffffffffffffffffff16ff5b60045481565b60035481565b600160009054906101000a900473ffffffffffffffffffffffffffffffffffffffff1673ffffffffffffffffffffffffffffffffffffffff163373ffffffffffffffffffffffffffffffffffffffff16146103a1576040517f08c379a0000000000000000000000000000000000000000000000000000000008152600401610398906107dd565b60405180910390fd5b60045442106103e5576040517f08c379a00000000000000000000000000000000000000000000000000000000081526004016103dc9061074b565b60405180910390fd5b60006003541161042a576040517f08c379a00000000000000000000000000000000000000000000000000000000081526004016104219061086f565b60405180910390fd5b600160009054906101000a900473ffffffffffffffffffffffffffffffffffffffff1673ffffffffffffffffffffffffffffffffffffffff166108fc6003549081150290604051600060405180830381858888f19350505050158015610494573d6000803e3d6000fd5b506000600381905550565b60008054906101000a900473ffffffffffffffffffffffffffffffffffffffff1681565b60025481565b600160009054906101000a900473ffffffffffffffffffffffffffffffffffffffff1673ffffffffffffffffffffffffffffffffffffffff163373ffffffffffffffffffffffffffffffffffffffff1614610559576040517f08c379a000000000000000000000000000000000000000000000000000000000815260040161055090610901565b60405180910390fd5b600254341461059d576040517f08c379a000000000000000000000000000000000000000000000000000000000815260040161059490610993565b60405180910390fd5b34600381905550565b600160009054906101000a900473ffffffffffffffffffffffffffffffffffffffff1681565b6000819050919050565b6105df816105cc565b82525050565b60006020820190506105fa60008301846105d6565b92915050565b600073ffffffffffffffffffffffffffffffffffffffff82169050919050565b600061062b82610600565b9050919050565b61063b81610620565b82525050565b60006020820190506106566000830184610632565b92915050565b600082825260208201905092915050565b7f4f6e6c792074686520696e73757265722063616e2063616e63656c207468697360008201527f20696e737572616e63652e000000000000000000000000000000000000000000602082015250565b60006106c9602b8361065c565b91506106d48261066d565b604082019050919050565b600060208201905081810360008301526106f8816106bc565b9050919050565b7f5468697320696e737572616e63652068617320657870697265642e0000000000600082015250565b6000610735601b8361065c565b9150610740826106ff565b602082019050919050565b6000602082019050818103600083015261076481610728565b9050919050565b7f4f6e6c792074686520696e73757265642063616e20636c61696d20746869732060008201527f696e737572616e63652e00000000000000000000000000000000000000000000602082015250565b60006107c7602a8361065c565b91506107d28261076b565b604082019050919050565b600060208201905081810360008301526107f6816107ba565b9050919050565b7f4e6f207061796f757420697320617661696c61626c6520666f7220746869732060008201527f696e737572616e63652e00000000000000000000000000000000000000000000602082015250565b6000610859602a8361065c565b9150610864826107fd565b604082019050919050565b600060208201905081810360008301526108888161084c565b9050919050565b7f4f6e6c792074686520696e73757265642063616e20707572636861736520746860008201527f697320696e737572616e63652e00000000000000000000000000000000000000602082015250565b60006108eb602d8361065c565b91506108f68261088f565b604082019050919050565b6000602082019050818103600083015261091a816108de565b9050919050565b7f546865207072656d69756d20616d6f756e74206d75737420626520706169642060008201527f696e2066756c6c2e000000000000000000000000000000000000000000000000602082015250565b600061097d60288361065c565b915061098882610921565b604082019050919050565b600060208201905081810360008301526109ac81610970565b905091905056fea26469706673582212202f88b36a5a4a428d6d794b2428f7feaa06232459cdf1054fff82c63d6556b2d464736f6c63430008130033",
  "immutableReferences": {},
  "source": "\r\n\r\n/*pragma solidity ^0.8.0;\r\n\r\ncontract MedicalRecord {\r\n    struct PatientRecord {\r\n        string name;\r\n        string diagnosis;\r\n        string treatment;\r\n        uint256 date;\r\n    }\r\n\r\n    address public owner;\r\n    mapping(address => bool) public authorized;\r\n\r\n    mapping(uint256 => PatientRecord) public records;\r\n    uint256 public recordCount;\r\n\r\n    constructor() {\r\n        owner = msg.sender;\r\n    }\r\n\r\n    modifier onlyOwner() {\r\n        require(msg.sender == owner, \"Only owner can call this function.\");\r\n        _;\r\n    }\r\n\r\n    modifier onlyAuthorized() {\r\n        require(authorized[msg.sender], \"Only authorized users can call this function.\");\r\n        _;\r\n    }\r\n\r\n    function addAuthorized(address user) public onlyOwner {\r\n        authorized[user] = true;\r\n    }\r\n\r\n    function removeAuthorized(address user) public onlyOwner {\r\n        authorized[user] = false;\r\n    }\r\n\r\n    function createRecord(string memory name, string memory diagnosis, string memory treatment) public onlyAuthorized {\r\n        uint256 id = ++recordCount;\r\n        records[id] = PatientRecord(name, diagnosis, treatment, block.timestamp);\r\n    }\r\n\r\n    function updateRecord(uint256 id, string memory name, string memory diagnosis, string memory treatment) public onlyAuthorized {\r\n        PatientRecord storage record = records[id];\r\n        record.name = name;\r\n        record.diagnosis = diagnosis;\r\n        record.treatment = treatment;\r\n    }\r\n\r\n    function getRecord(uint256 id) public view onlyAuthorized returns (string memory, string memory, string memory, uint256) {\r\n        PatientRecord storage record = records[id];\r\n        return (record.name, record.diagnosis, record.treatment, record.date);\r\n    }\r\n\r\n    function deleteRecord(uint256 id) public onlyAuthorized {\r\n        delete records[id];\r\n    }\r\n}\r\n*/\r\n/*\r\npragma solidity ^0.8.0;\r\n\r\ncontract DoctorAppointment {\r\n    struct Appointment {\r\n        uint256 appointmentTime; // Timestamp of the appointment\r\n        address payable patient; // Address of the patient who booked the appointment\r\n        bool booked; // Indicates whether the appointment is booked or not\r\n        bool paid; // Indicates whether the appointment fee has been paid or not\r\n    }\r\n\r\n    address public doctor; // Address of the doctor\r\n    uint256 public appointmentDuration; // Duration of each appointment\r\n    uint256 public appointmentFee; // Fee for each appointment\r\n    uint256 public maxAppointmentsPerDay; // Maximum number of appointments per day\r\n    mapping(uint256 => Appointment[]) public appointments; // Map of appointments for each day\r\n\r\n    constructor(address _doctor, uint256 _appointmentDuration, uint256 _appointmentFee, uint256 _maxAppointmentsPerDay) {\r\n        doctor = _doctor;\r\n        appointmentDuration = _appointmentDuration;\r\n        appointmentFee = _appointmentFee;\r\n        maxAppointmentsPerDay = _maxAppointmentsPerDay;\r\n    }\r\n\r\n    function bookAppointment(uint256 _day, uint256 _appointmentTime) external payable {\r\n        require(msg.sender != doctor, \"Doctor cannot book appointment\");\r\n        require(appointments[_day].length < maxAppointmentsPerDay, \"No available appointments on this day\");\r\n        require(_appointmentTime % appointmentDuration == 0, \"Appointment time must be a multiple of appointment duration\");\r\n        require(msg.value == appointmentFee, \"Incorrect appointment fee\");\r\n\r\n        uint256 appointmentSlot = _appointmentTime / appointmentDuration;\r\n        require(!appointments[_day][appointmentSlot].booked, \"Appointment already booked\");\r\n\r\n        appointments[_day][appointmentSlot] = Appointment({\r\n            appointmentTime: _appointmentTime,\r\n            patient: payable(msg.sender),\r\n            booked: true,\r\n            paid: true\r\n        });\r\n    }\r\n\r\n    function cancelAppointment(uint256 _day, uint256 _appointmentTime) external {\r\n        uint256 appointmentSlot = _appointmentTime / appointmentDuration;\r\n        Appointment storage appointment = appointments[_day][appointmentSlot];\r\n        require(appointment.patient == msg.sender, \"Only patient who booked the appointment can cancel it\");\r\n        require(!appointment.paid, \"Appointment fee already paid\");\r\n        appointment.booked = false;\r\n        appointment.patient.transfer(appointmentFee);\r\n    }\r\n}\r\n*/\r\n\r\n\r\n// SPDX-License-Identifier: MIT\r\n\r\n/*\r\npragma solidity >=0.5.16 <0.9.0;\r\n\r\ncontract BookingRoom {\r\n    struct Appointment {\r\n        address guest;\r\n        uint appointmentDate;\r\n        uint checkOutDate;\r\n    //    uint roomNumber;\r\n        uint totalPrice;\r\n        bool paid;\r\n    }\r\n\r\n    Appointment[] public Appointments;\r\n\r\n    uint public constant PRICE_PER_NIGHT = 1 ether;\r\n\r\n    event AppointmentCreated(address guest, uint appointmentDate, uint checkOutDate, uint totalPrice);\r\n    event AppointmentPaid(uint AppointmentId);\r\n\r\n    function createAppointment(uint appointmentDate, uint checkOutDate) public payable {\r\n        require(msg.value == (checkOutDate - appointmentDate) * PRICE_PER_NIGHT, \"Invalid payment amount.\");\r\n     //   require(roomNumber >= 1 && roomNumber <= 10, \"Invalid room number.\");\r\n        require(appointmentDate >= block.timestamp, \"Check-in date must be in the future.\");\r\n        require(checkOutDate > appointmentDate, \"Check-out date must be after check-in date.\");\r\n\r\n        Appointment memory Appointment = Appointment(msg.sender, appointmentDate, checkOutDate, msg.value, false);\r\n        Appointments.push(Appointment);\r\n        emit AppointmentCreated(msg.sender, appointmentDate, checkOutDate, msg.value);\r\n    }\r\n\r\n    function payAppointment(uint AppointmentId) public payable {\r\n        Appointment storage Appointment = Appointments[AppointmentId];\r\n        require(Appointment.guest == msg.sender, \"Only the guest who created the Appointment can pay.\");\r\n        require(Appointment.paid == false, \"Appointment has already been paid.\");\r\n\r\n        Appointment.paid = true;\r\n        emit AppointmentPaid(AppointmentId);\r\n    }\r\n}\r\n\r\n*/\r\npragma solidity ^0.8.0;\r\n\r\ncontract Insurance {\r\n\r\n    address payable public insurer;\r\n    address payable public insured;\r\n    uint public premium;\r\n    uint public payout;\r\n    uint public expiration;\r\n\r\n    constructor(address payable _insured, uint _premium, uint _expiration) payable {\r\n        insurer = payable(msg.sender);\r\n        insured = _insured;\r\n        premium = _premium;\r\n        expiration = _expiration;\r\n    }\r\n\r\n    function purchaseInsurance() public payable {\r\n        require(msg.sender == insured, \"Only the insured can purchase this insurance.\");\r\n        require(msg.value == premium, \"The premium amount must be paid in full.\");\r\n        payout = msg.value;\r\n    }\r\n\r\n    function claimInsurance() public {\r\n        require(msg.sender == insured, \"Only the insured can claim this insurance.\");\r\n        require(block.timestamp < expiration, \"This insurance has expired.\");\r\n        require(payout > 0, \"No payout is available for this insurance.\");\r\n        insured.transfer(payout);\r\n        payout = 0;\r\n    }\r\n\r\n    function cancelInsurance() public {\r\n        require(msg.sender == insurer, \"Only the insurer can cancel this insurance.\");\r\n        require(block.timestamp < expiration, \"This insurance has expired.\");\r\n        insured.transfer(premium);\r\n        selfdestruct(insurer);\r\n    }\r\n\r\n}\r\n",
  "sourcePath": "C:\\Users\\DELL\\Desktop\\truffleproj\\healthdapp\\trialhealth\\contracts\\MedicalRecord.sol",
  "compiler": {
    "name": "solc",
    "version": "0.8.19+commit.7dd6d404.Emscripten.clang"
  },
  "schemaVersion": "3.4.13",
  "updatedAt": "2023-04-06T15:55:13.424Z",
  "devdoc": {
    "kind": "dev",
    "methods": {},
    "version": 1
  },
  "userdoc": {
    "kind": "user",
    "methods": {},
    "version": 1
  }
}